:100000000C949E050C94E5050C94E5050C94E5050F
:100010000C94E5050C94E5050C94E5050C94E505B8
:100020000C94E5050C94E5050C948A260C945E2747
:100030000C94F41D0C94E5050C94E5050C94E50571
:100040000C94E5050C94E5050C94E5050C94E50588
:100050000C94E5050C94661E0C94E5050C94E505DE
:100060000C94E5050C94E5050C94E5050C94E50568
:100070000C94E5050C94E5050C94E5050C94E50558
:100080000C94E5050C94E5050C94E5050C94E50548
:100090000C94E5050C94E5050C94E5050C94E50538
:1000A0000C94E5050C94E5050C94E505726B7265FE
:1000B0006D65724062757368656C706F77657265A7
:1000C000642E636F6D007269636B2E632E6B7265B5
:1000D0006D657240676D61696C2E636F6D006D6157
:1000E0006B65206E6F72693A6D61636F733A61760A
:1000F0007264756465006D616B65206E6F72693A3C
:1001000064656661756C743A646675006D616B65F3
:10011000207468657269636B34383A6D61636F731C
:100120003A61767264756465006D616B6520746810
:10013000657269636B34383A64656661756C743AEC
:1001400064667500290014001A00080015001700E5
:100150001C0018000C00120013004C002B4304007C
:100160001600070009610A000B000D610E000F0068
:1001700033003462E1001D611B62060019000500B6
:10018000110010003600370038002862E000E1005E
:10019000E300E2002A41E3002C002C42506151624E
:1001A00052624F610100075708572D002E000000D2
:1001B00000002A005F006000610056002B444A6185
:1001C0004E004B004D452A003D003B005C005D00A9
:1001D0005E00570001005000510052004F00000027
:1001E0000100B20059005A005B00580001000100F4
:1001F000010001000100010001002C4462006300C5
:10020000550054001E001F00200021002200230082
:1002100024002500260027002D002E001E02065770
:1002200020022102220223022402250226022702A2
:100230002D022E0239620357010001000100010066
:10024000490046002F003000025701000100010064
:10025000010001000100010001530100AE00AA00ED
:10026000A900A8003A003B003C003D003E003F00D2
:100270004000410042004300440045000100E0000E
:10028000E1004C004C00010001005064510052009C
:100290004F642800010001000100045705570100C8
:1002A00001004A614E624B624D6101000100010094
:1002B000010001002800010001000100010001000F
:1002C0000100010001000100010001000100010026
:1002D000010001002A00540055004C000100E0001C
:1002E000E1004C004C00010001000100506151622E
:1002F00052624F00010001000100010001000100F5
:10030000010001004A614E624B624D610100010033
:100310000100010001000100015301000100010082
:1003200001000100005C010001000100010001006A
:1003300001000100010001000100010001004D0168
:10034000010001000100010001000100210236004E
:100350002202010001000100010001000100010072
:10036000010001001E020100010001000100010066
:100370000100010001000100010001000100010075
:100380005300010044454255473A20646973616255
:100390006C65642E0A0044454255473A20656E61FB
:1003A000626C65642E0A0000000000000000002A54
:1003B0002B280000000000000000000000000000EA
:1003C000000029000000002C1E34202122243426A5
:1003D00027252E362D3738271E1F2021222324259E
:1003E000263333362E37381F0405060708090A0B53
:1003F0000C0D0E0F101112131415161718191A1BC5
:100400001C1D2F3130232D350405060708090A0B62
:100410000C0D0E0F101112131415161718191A1BA4
:100420001C1D2F3130354C00000000000000000082
:1004300000000000000000000000007E0F00D4FF5C
:10044000FFFFC7000000780A002530313662003A0D
:10045000200025303258000A722F632030313233A9
:100460003435363738394142434445460A000A009C
:100470002530325820006B6579626F6172645F725B
:1004800065706F72743A20000A0025303258006B94
:100490006579626F6172645F7365745F6C65643AFD
:1004A00020003F00433E20004C25640A0074696D23
:1004B00065725F72656164333228293A20253034D1
:1004C0006C580A006B6579626F6172645F69646C75
:1004D000653A2025580A006B6579626F6172645F26
:1004E00070726F746F636F6C3A2025580A00686FE2
:1004F00073745F6B6579626F6172645F6C6564735E
:1005000028293A2025580A000A092D2053746174BD
:100510007573202D0A004743433A20382E332E307E
:10052000204156522D4C4942433A20322E302E3033
:10053000204156525F415243483A20617672350A53
:10054000004F5054494F4E533A204C554641204598
:10055000585452414B455920434F4E534F4C452020
:10056000434F4D4D414E4420343039360A004255F8
:10057000494C443A2022302E382E39342D362D67FE
:1005800033386437313422202832313A31373A3027
:1005900034204D61792020392032303230290A0050
:1005A0005649443A20307846454544287468657277
:1005B00069636B29205049443A203078303030311B
:1005C000287468657269636B343829205645523A3D
:1005D000203078303030310A00444553433A2042CD
:1005E0006C6174616E7420636F7079206F66205047
:1005F0006C616E636B0A000A092D2056657273697F
:100600006F6E202D0A000A092D20436F6E736F6CE8
:1006100065202D0A4553432F713A09717569740A93
:10062000000A092D204D61676963202D0A443A09AB
:100630004465627567204D65737361676520546F0B
:1006400067676C650A583A094D617472697820448D
:1006500065627567204D6F646520546F67676C65D0
:10066000202D2053686F77206B65797072657373E6
:10067000657320696E206D61747269782067726994
:10068000640A4B3A094B6579626F61726420446574
:1006900062756720546F67676C65202D2053686F03
:1006A00077206B65797072657373207265706F72F5
:1006B000740A4D3A094465627567204D6F7573651C
:1006C00020546F67676C650A563A095665727369FC
:1006D0006F6E0A533A095374617475730A433A0989
:1006E000416374697661746520436F6E736F6C65E6
:1006F000204D6F64650A46312D4631303A095377F3
:100700006974636820746F204C6179657220302DA4
:10071000392028463130203D204C30290A302D39EF
:100720003A0953776974636820746F204C61796566
:100730007220302D390A47524156453A095377699C
:1007400074636820746F204C6179657220302028B2
:10075000616C7465726E617465290A423A094A7562
:100760006D7020746F20426F6F746C6F616465727E
:100770000A4553433A094A756D7020746F20426FE1
:100780006F746C6F616465722028616C7465726E41
:10079000617465290A453A095072696E74204545AD
:1007A00050524F4D2053657474696E67730A4253FB
:1007B000504143453A09436C6561722045455052AA
:1007C0004F4D0A000A002575002E6E6B726F3A209D
:1007D000000A002575002E737761705F6261636B9C
:1007E000736C6173685F6261636B73706163653AB8
:1007F00020000A002575002E737761705F677261B3
:1008000076655F6573633A20000A002575002E6ED9
:100810006F5F6775693A20000A002575002E7377AF
:1008200061705F72616C745F726775693A20000A6B
:10083000002575002E737761705F6C616C745F6C5E
:100840006775693A20000A002575002E737761707C
:100850005F7263746C5F726775693A20000A0025E5
:1008600075002E737761705F6C63746C5F6C677575
:10087000693A20000A002575002E636170736C6F61
:10088000636B5F746F5F636F6E74726F6C3A20009E
:100890000A002575002E737761705F636F6E747246
:1008A0006F6C5F636170736C6F636B3A20000A005A
:1008B00025303258006B65796D61705F636F6E66CD
:1008C00069672E7261773A20000A002575002E6D47
:1008D0006F7573653A20000A002575002E6B6579E7
:1008E000626F6172643A20000A002575002E6D6106
:1008F000747269783A20000A002575002E656E61D1
:10090000626C653A20000A00253032580064656246
:1009100075675F636F6E6669672E7261773A200054
:100920000A0025750064656661756C745F6C617999
:1009300065723A20003F000A6D6F7573653A206F4B
:1009400066660A000A6D6F7573653A206F6E0A005D
:100950000A6B6579626F6172643A206F66660A009D
:100960000A6B6579626F6172643A206F6E0A000AE1
:100970006D61747269783A206F66660A000A6D616B
:10098000747269783A206F6E0A000A64656275674E
:100990003A206F66660A000A64656275673A206FDE
:1009A0006E0A000A0A4A756D70696E6720746F20BE
:1009B000626F6F746C6F616465722E2E2E2000431F
:1009C0003E2000436C656172696E67204545505258
:1009D0004F4D0A006565636F6E6669673A0A005B92
:1009E000735D004B6579626F61726420737461722C
:1009F000742E0A005B575D005B535D005B525D0027
:100A00005B445D005B435D000403300000001403A1
:100A10007400680065007200690063006B003400B8
:100A2000380000001003740068006500720069005F
:100A300063006B0000000403090409025B0003016A
:100A400000A0FA09040000010301010009211101BD
:100A500000012240000705810308000A0904010083
:100A600001030000000921110100012232000705E5
:100A7000820320000A090402000203000000092189
:100A80001101000122220007058303200001070550
:100A900003032000011201100100000008EDFE0117
:100AA000000100010203010631FF0974A10109756B
:100AB000150026FF0095207508810209761500268D
:100AC000FF00952075089102C005010980A10185EC
:100AD0000319012AB700150126B700950175108189
:100AE00000C0050C0901A101850419012AA0021505
:100AF0000126A002950175108100C005010906A11B
:100B000001050719E029E715002501950875018100
:100B1000029501750881010507190029FF150026B6
:100B2000FF0095067508810005081901290595053E
:100B300075019102950175039101C00011241FBE3A
:100B4000CFEFDAE0DEBFCDBF04B603FE27C0809151
:100B5000200390912103A0912203B09123038730B9
:100B6000904BA740B04BD1F4109220031092210378
:100B7000109222031092230314BE84B7877F84BF90
:100B80000FB6F894A895809160008861809360000A
:100B9000109260000FBEE0E0F8E3099512E0A0E0DB
:100BA000B1E0EAE1F3E502C005900D92A636B10787
:100BB000D9F723E0A6E6B2E001C01D92A032B20749
:100BC000E1F70E94B0230C9463290C940000FF937A
:100BD000EF93E0916602F0916702309709F0099572
:100BE000EF91FF910895FC018591803011F0EFDFC6
:100BF000FBCF0895FF27E0E230E247FF0CC04195AC
:100C000097FF09C0EDE26095709580959095611D04
:100C1000711D811D911D27FF02C0219530E350E217
:100C2000AA27660F771F881F991FAA1FA41710F005
:100C3000A41B63955A95A9F7AA3008F0A95FA05D97
:100C4000AF93F395611571058105910541F7ED327B
:100C500011F4EF93F395F21718F43F93F395FBCF4C
:100C60008F91B5DFFA95E1F70895E991F9918591B2
:100C7000803021F0853219F0AADFF9CF089520E005
:100C8000E89455915532C1F3503311F4689455915D
:100C90005A3348F4505390F3220F022E220F220FA2
:100CA000200D250FF4CF0EF421958991999153369B
:100CB00019F3533729F1533559F1BC018827992786
:100CC000E8945C3621F48991999168945591543651
:100CD00039F446EF7EF077FF0DC08FEF9FEF0AC02B
:100CE00055374AE039F0583540E121F0523642E0BC
:100CF00009F00895FF93EF937DDFEF91FF91B7CF58
:100D0000FF93EF93FC0181918030B9F360DFFBCF5B
:100D1000FF93EF9368DFF1CFDF93CF93CDB7DEB7CB
:100D20002596A3DFCF91DF9108950C94780B0C9456
:100D3000790B0C94EB070C94FA08089508958091B0
:100D4000070190910801019731F481EE0E94B812D9
:100D50008FE10E94B81210920801109207010895C5
:100D600080910401909105018330910599F08630BE
:100D7000910569F0019731F481EE0E94B81286E284
:100D80000E94B8121092050110920401089581EE9C
:100D90000E94B8128FE2F4CF80910101909102017C
:100DA0008330910599F08630910569F0019731F40F
:100DB00081EE0E94B81287E20E94B81210920201DE
:100DC00010920101089581EE0E94B81280E3F4CFE1
:100DD000FC018081813049F4818581111CC08285AC
:100DE0008823C9F082E090E00895823049F481853B
:100DF000811114C08285811114C083E090E00895B0
:100E0000833091F48185811112C08285882379F025
:100E100087E090E0089581E090E0089585E090E01B
:100E2000089584E090E0089588E090E0089586E0D9
:100E300090E008950E94E8068130910519F003972B
:100E400029F0089589E291E00C94EB088CE091E0A0
:100E5000FBCF0E94E8068130910519F0039729F035
:100E6000089586EF90E00C94EB088EED90E0FBCFB8
:100E70000E94E80690930801809307018330910552
:100E800059F08630910561F0019769F481EE0E9476
:100E900029128FE10C94291286EC90E00C94EB0857
:100EA0008CEA90E0FBCF08950E94E806909305013C
:100EB000809304018330910571F08630910541F0F3
:100EC000019759F481EE0E94291286E20C942912AE
:100ED00081EE0E9429128FE2F9CF08950E94E80660
:100EE00090930201809301018330910571F0863067
:100EF000910541F0019759F481EE0E94291287E291
:100F00000C94291281EE0E94291280E3F9CF0895F2
:100F1000CF93DF939C013A9521153F4168F5EC0191
:100F2000CC27D170DC01AA27B270AC0144275470E1
:100F30009C012227387094FF11C080E1CD2B09F469
:100F400080E0AB2B09F08062452B09F08064232BF5
:100F500009F08068FB01DF91CF91099481E0CD2BEE
:100F600009F480E0AB2B09F08260452B09F0846026
:100F7000232B81F38860EECFDF91CF910895CF933B
:100F8000DF93EC01805E9109089720F06FE575E131
:100F9000209711F46AE173E1CE010E9488078C2F3B
:100FA000DF91CF910C942912CF93DF93EC010E9433
:100FB000B812CE01805E9109089720F066E675E1CF
:100FC000209711F461E273E1CE01DF91CF910C948F
:100FD000880781E0089581E0089508950C94ED0755
:100FE0001F93CF93DF9300D000D00F92CDB7DEB721
:100FF00049835A836B832091800289819A812111D0
:101000001BC06623A9F00E94371B182F682F898107
:101010009A810E94E31A69817A81812F0F900F9043
:101020000F900F900F90DF91CF911F910C94760944
:101030000E940F1B182FEFCF0E94371B69817A8106
:10104000EDCFFC01408151816281738184810C94D8
:10105000F007CF93DF93EC010E942108BE01DF91DE
:10106000CF910C94EE07FF920F931F93CF93DF93D2
:10107000E82FF0E0E955FC4FF490C82FC695C695CF
:10108000C695D0E0FE01E95CFB4F0491877010E04B
:10109000082E02C0159507950A94E2F701701127F2
:1010A000C95DDB4FFE01C491D0E002C0D595C79564
:1010B0008A95E2F7C170DD270115110519F081EE5F
:1010C0000E942912209719F086EE0E9429128F2D76
:1010D0000E940713CD2B19F086EE0E94B812012B47
:1010E00041F081EEDF91CF911F910F91FF900C9411
:1010F000B812DF91CF911F910F91FF900895EF9259
:10110000FF920F931F93CF93DF938C01F62E8AE00B
:10111000E82EF8018491882309F456C0813009F043
:101120004FC0E8012196FE018491813051F421964F
:10113000FE011491812F0E942912812F0E94B81262
:1011400008C0823099F4E8012296FE0184910E9441
:1011500029128E010F5F1F4F8F2D8150D0F2EFE9C2
:10116000FFE03197F1F700C00000F7CF833029F49A
:10117000E8012296FE018491E1CF843051F7E80125
:101180002296FE01249190E080E0FE0131962053EA
:10119000330B2A30310548F00197D8F2EFE9FFE030
:1011A0003197F1F700C00000F7CFE89EA001E99E5B
:1011B000500D1124C901840F951F2491EF01E5CF33
:1011C0000E943308E801C5CFDF91CF911F910F91A5
:1011D000FF90EF90089560E00C947F080E94A81C97
:1011E000811102C00E94451D0C9495060E942C108E
:1011F0000C949706089581E008950C94FB08CF9312
:10120000C82F0E949B068C2FCF910C94FD08089547
:101210000E947F150E9407092FEF84E39CE0215074
:1012200080409040E1F700C000000C948A1E0F93AC
:101230001F93CF93DF93EC010E9421088C01BE0124
:101240000E948C0FBE01C8010E949906882341F1BB
:10125000BE01C8010E94D20F882311F1BE01C8014E
:101260000E946E0D8823E1F0BE01C8010E94AF0DFF
:101270008823B1F0BE01C8010E94D20E882381F0FC
:101280008A81882341F101308CE5180779F00E3D01
:101290008CE51807E9F001151C45E9F40E940809DE
:1012A00080E0DF91CF911F910F9108959091EC0212
:1012B000892F8E7F90FF81608093EC0280FF05C0B4
:1012C00086E993E00E94F305EBCF84E893E0FACF40
:1012D0000E94451DE5CFCE01DF91CF911F910F9167
:1012E0000C94E90790E080E008950895972F70E04E
:1012F0002CE0929F600D711D1124FB0190E3899FEA
:10130000E00DF11D1124EE0FFF1FEC5BFE4F8591E8
:1013100094910895FC01EE0FFF1FEC5BFE4F859149
:1013200094910895CF93DF930E9476090E949E0ABC
:10133000EC01811520E5920708F041C0811530E4E9
:10134000930708F0B4C0803E910518F5803C9105E4
:1013500008F09DC0883A910570F4853A910508F02F
:101360008EC081309105F9F00097E9F00497D8F428
:10137000D0E0C0E018C08F3B9105D0F7C85AD0E04C
:10138000CC0FDD1FCB51DE4F0990D881C02DD46426
:101390000AC08115904258F4C11581E0D80718F4AD
:1013A000C83ED10528F7CE01DF91CF910895C11530
:1013B00090E3D90708F071C0CE019F706AC0811513
:1013C00025E5920758F5811534E5930708F09EC08E
:1013D000811542E5940750F4C11581E5D80708F45A
:1013E00069C0DC2FCC27C16FD06ADDCF982F9695CE
:1013F00096959E0123703327C115D34508F077C019
:10140000C1E0D0E002C0CC0FDD1F2A95E2F720E258
:10141000929FC0011124C82BD92B67C0C11589E543
:10142000D807A8F4C11598E5D90708F074C0C1150C
:1014300026E5D20708F09CCF8C2F0E94350BC82FD1
:10144000D0E0DC2FCC27CC27DF71D062ACCFC11528
:101450003AE5D30708F464C0CE0190568115904256
:1014600008F086CF8D2F8F710E94350B90E0982F5A
:10147000882788279F719C012C2BE901E6CFC55A4C
:10148000D0E0CD5EDD4FC881D0E0D0648CCF805CF1
:1014900091090E948A09EC0186CFCE019927D3FFDA
:1014A00003C0EC01D86C7FCFEC01D06C7CCFDF7037
:1014B000D06A79CFCE01E4E096958795EA95E1F779
:1014C00083702C2F26952695237090E2299F9001FA
:1014D0001124382B8C2F8370C1E0D0E002C0CC0FD8
:1014E000DD1F8A95E2F7C22BD32BDC685CCFC1E00D
:1014F000D0E002C0CC0FDD1F2A95E2F730E2939FC7
:10150000C0011124C82BD92BDA684DCFD82FCC2796
:10151000C46FD06A48CFDC2FCC27C06FD06A43CFCE
:101520008C2F8F700E94350B34E0D695C7953A9575
:10153000E1F7CF709C2FEC01D06935CF823891054F
:10154000B1F1B0F48133910509F475C048F48932E2
:10155000910509F469C08A32910509F473C00895B0
:101560008533910509F459C08933910501F1089536
:10157000833E9105A9F138F4803E9105F9F0823E51
:10158000910549F10895863E9105A9F1873E91059F
:10159000C9F1843E910519F52091120321FF1FC066
:1015A0008091110384FD14C087EE90E0089520918E
:1015B00011032370A1F080EE90E0089520911103B3
:1015C00020FD47C03091120330FF09C024FF44C002
:1015D00090E080E004C02091110322FDF7CF089530
:1015E0002091110322FD3BC03091120330FDE3CF67
:1015F00024FFF5CFEDCF2091110323FFF0CF24FD81
:10160000E7CFD2CF2091110323FD2CC030911203DC
:1016100031FFEECF84EE90E008952091110325FF75
:10162000DECF89E290E008952091110325FFD7CF06
:1016300085E390E008952091110326FFD0CF8AE240
:1016400090E008952091110326FFC9CF81E390E037
:10165000089589E390E0089583EE90E0089582EE86
:1016600090E0089586EE90E008959091110392FF26
:1016700006C0282F28712830F9F4877F846093FFF3
:1016800006C0282F28712831F1F4877E84612091CB
:10169000120320FF06C0382F38713830D9F4877F05
:1016A000816021FF06C0282F28712831D1F4877E60
:1016B000816194FD877E0895282F24712430F9F6E6
:1016C0008B7F8860DCCF282F2471243101F78B7E3B
:1016D0008861DDCF382F3171313019F78E7F886006
:1016E000E0CF282F2171213121F78E7E8861E1CF53
:1016F00008950895E82FF0E0EE0FFF1FEB5FFC4F19
:10170000808191810895CF92DF92EF92FF920F93A3
:101710001F93CF93DF9387E594E00E94F30585E064
:10172000E82E83E0F82ED0E0C0E092E5C92E94E0E8
:10173000D92E09E414E0DF93CF93DF92CF920E9479
:101740008C068FE494E00E94F305F701819191915A
:101750007F010E949B1C9F938F931F930F930E9466
:101760008C0687E494E00E94F30521968DB79EB71E
:1017700008960FB6F8949EBF0FBE8DBFC430D1053A
:10178000D1F6DF91CF911F910F91FF90EF90DF90F5
:10179000CF90089580EA8A95F1F70895CF93DF936B
:1017A000A2E2B2E046E252E0C1E0D0E08D91E82F43
:1017B000E295EF70F0E061A18F709E0101C0220FF1
:1017C0008A95EAF7922F9095962391A382A1822B76
:1017D00082A34A175B0751F7A6E1B2E042E252E06A
:1017E000C1E0D0E08D91E82FE295EF70F0E061A1CB
:1017F0008F709E0101C0220F8A95EAF7922F909573
:10180000962391A382A1822B82A34A175B0751F7EB
:101810001092FE021092FD02109206031092050330
:10182000109200031092FF02109208031092070317
:10183000109202031092010310920A0310920903FE
:10184000109204031092030310920C0310920B03E6
:1018500084E00E94C70CDF91CF910C94EE084F9268
:101860005F926F927F928F929F92AF92BF92CF9230
:10187000DF92EF92FF920F931F93CF93DF938DEF41
:10188000E82E82E0F82E92E2A92E92E0B92E512C99
:1018900088248394912CD7016D907D907D01FD016A
:1018A000129212928F01D5018D915D01C82FC295C0
:1018B000CF70D0E099A18F70640101C0CC0C8A95E3
:1018C000EAF7892F8C2989A38AA14C2C4094842182
:1018D0008AA30E94CA0BE6E1F2E030E020E06191C9
:1018E000A62FA295AF70B0E090968C91D8014D9143
:1018F0005C9190E06F7002C0959587956A95E2F7CC
:1019000080FD42C0C401022E02C0880F991F0A94B4
:10191000E2F7482B592BD80111965C934E932F5F19
:101920003F4F2C303105D9F689A1482249A28AA11E
:10193000C82ACAA281E02D913C912615370509F4E9
:1019400080E0582AB5E0EB16B3E0FB0609F0A3CF20
:10195000252D44E065E073E08DEF92E00E94C80C15
:101960000E94F608852DDF91CF911F910F91FF9076
:10197000EF90DF90CF90BF90AF909F908F907F902F
:101980006F905F904F90089590E080E0C2CF0895EF
:10199000FF920F931F93CF93DF93F82E092F162FEB
:1019A000D72FC42F222349F081E080936A020E943E
:1019B000241E909369028093680280916A028823B2
:1019C000A1F080916802909169020E943C1E0697E6
:1019D00060F0EF2DF02FA12FBD2F90E080E0D0E040
:1019E0008C179D0744F010926A02DF91CF911F91EE
:1019F0000F91FF900895219131912D933D93019680
:101A0000EFCF0F931F93CF93DF93C62FD42F022FC7
:101A1000FC0182818823C9F060936D020E94241E1C
:101A200090936C0280936B0280E28C0F883008F0F8
:101A300050C0C77081E001C0880FCA95EAF7DF91F6
:101A4000CF911F910F910C941A1310916D021613E0
:101A500035C080916B0290916C020E943C1E883CC4
:101A6000910560F5C0E2CD0F1D17B9F080E2810F3E
:101A7000883040F4177081E001C0880F1A95EAF7AA
:101A80000E942113C83048F481E09D2F977001C057
:101A9000880F9A95EAF70E941A13802F0E94071365
:101AA000C830B8F4D77081E001C0880FDA95EAF742
:101AB000DF91CF911F910F910C94211380E28C0F35
:101AC000883038F4C77081E001C0880FCA95EAF702
:101AD000EFCFDF91CF911F910F9108959C01CB0122
:101AE000233F4CE5340731F190F4283DFCE53F07F6
:101AF000E9F0293D4CE5340769F1273D3C4579F48F
:101B000026E241EE61EE0E94010D80E00895253F3E
:101B1000FCE53F07B9F090F0263F3C45B9F0FC01E9
:101B200082818823D1F010926D02089527E245EE5C
:101B300065EEE9CF26E241EE60EEE5CF27E245EE25
:101B400064EEE1CF26E241EE62EEDDCF27E245EE24
:101B500066EED9CF28E241E0EBCF81E00895CF9344
:101B6000DF93EC01FB018281882309F419C1C230A3
:101B7000FCE5DF07C0F1C6319CE5D90730F09E01D6
:101B80002A5F3C452930310570F50E94BB1C9093BB
:101B9000120380931103C031ECE5DE0709F4CFC0D6
:101BA00008F05BC0C8308CE5D80709F4B6C088F5EA
:101BB000C430ECE5DE0709F4A8C0C0F4C2308CE5FF
:101BC000D80709F49CC0809111038260C330DC45C2
:101BD00009F498C080911103909112030E94C91CCE
:101BE0000E947F1580E0DF91CF91089580911103CD
:101BF0008061C630ECE5DE0709F484C080911103F2
:101C00008860C730DC4508F47DC080911103806294
:101C100079C0CC308CE5D80709F489C070F4809184
:101C200011038C60CA30ECE5DE0709F46BC008F4E0
:101C300078C0809111038E7F65C0CE308CE5D807C7
:101C400009F479C0809111038B7FCF30DC4508F413
:101C500059C0809111038F7E55C0CB3FECE5DE0764
:101C600009F457C030F5C3318CE5D80709F46FC0CB
:101C700078F4C131ECE5DE0709F465C0C231DC451A
:101C800009F0A8CF0E947F15809111038F773AC089
:101C9000C5318CE5D80709F462C008F476C080919C
:101CA00012038160CA3FDC4509F094CF8093120390
:101CB00091CFCF3FFCE5DF0709F44DC088F4809158
:101CC00012038D7FCD3F9CE5D90781F380911203EC
:101CD0008E7FCE3FDC4550F3809112038360E6CFC8
:101CE000C130FDE5DF0709F459C008F444C080E0C5
:101CF000C230DD4509F06ECF0E94471D6BCF809149
:101D0000110381608093110365CF8091110384607A
:101D1000F9CF809112038260C9CF80911103806452
:101D2000F1CF0E947F15809111038068EBCF8091E5
:101D300011038D7FE7CF80911103877FE3CF8091DF
:101D400011038F7DDFCF809111038F7BDBCF8091DB
:101D50001103837FD7CF809112038C7FA7CF80910F
:101D6000110382FB992790F921E0922790FB82F9D9
:101D700090FB83F9C7CF80911203982F90959170B3
:101D80008E7F892B90FB81F991CF0E947F159091D6
:101D90001103892F97FB87F98058B4CF81E0ACCF2E
:101DA00081E021CFCF93DF93EB0186319C4511F584
:101DB0000E94CC1B9A81992399F08A7A91E009F4C8
:101DC00090E090936E02811109C089E20E94A71BE6
:101DD0000E941B1C80E0DF91CF91089585E3F6CF30
:101DE00080916E02811104C089E20E94AE1BF0CF87
:101DF00085E3FBCF81E0EFCFCF93DF93EC0181E070
:101E0000898B8F810E94CF1B88850E94E21B0E94D4
:101E10001B1CEA81FB81309739F06C897D89CE01EA
:101E20000696DF91CF910994DF91CF910895CF93DA
:101E3000DF93EC018881823039F4FB018281938148
:101E40000E94BF0781E08B87DF91CF910895FC014D
:101E50008081813029F4FB01808191810C94BF073E
:101E6000823021F4FB0182819381F8CF0895FC0137
:101E70008081813029F4FB01808191810C94D40709
:101E8000823021F4FB0182819381F8CF0895EF9293
:101E9000FF920F931F93CF93DF93EC018A858111FB
:101EA00034C0EB80FC8087E5F81A26E12E9DC00146
:101EB0002F9D900D1124DC01A75FBE4F1496ED916C
:101EC000FC911597309731F054966D917C91815F1C
:101ED0009E4F099586E18E9D80018F9D100D1124E6
:101EE000075F1E4FF80187810E94D51BF80180858E
:101EF0000E94E81B0E941B1C188219861B861E82EA
:101F00001D821092700210926F02DF91CF911F918B
:101F10000F91FF90EF900895DF92EF92FF920F9351
:101F20001F93CF93DF937C01FB018281882391F083
:101F30008091D7018F3F71F0C9E0D1E010E000E05F
:101F4000DD24D3948091D701082E000C990B8017C3
:101F5000910744F4DF91CF911F910F91FF90EF9083
:101F6000DF9008958E818823C9F089859A858E1522
:101F70009F0539F480916F02909170028E159F0534
:101F800069F0DF86FC86EB868989811103C0CE016A
:101F90000E94FC0ECE0106960E94470F0F5F1F4F56
:101FA0006696D0CFEF92FF920F931F93CF93DF935C
:101FB0007C0197558F3F910509F0D8F52091D70105
:101FC000022E000C330B2817390714F48093D70125
:101FD000FB01228136E1389F8001399F100D1124C9
:101FE000E801C75FDE4F288B92818E81992349F1EA
:101FF000FA86E9868F5F8E830E94241E9E878D87D6
:102000000E94021C8F830E94CC1B88870E94DF1BCA
:102010009885892B8887E881F981309731F06C8920
:102020007D89C801815F9E4F0995F0927002E09210
:102030006F0281E0DF91CF911F910F91FF90EF90A0
:1020400008958823B1F38989882399F3C801815FB2
:102050009E4F0E94470FEDCFEF92FF920F931F9379
:10206000CF93DF938091D70110E006E18F3FC1F558
:10207000DF91CF911F910F91FF90EF900895029FF4
:10208000F001039FF00D1124E75FFE4FE288F38813
:10209000E114F10419F488ECE82EF12C029FE00120
:1020A000039FD00D1124C75FDE4F8E818823B9F0C6
:1020B0008D859E850E943C1EE816F90680F4109FCF
:1020C000700111248989811105C0C701875F9E4F66
:1020D0000E94FC0EC701815F9E4F0E94470F1F5F49
:1020E000212F30E08091D701082E000C990B821728
:1020F00093072CF6BDCF90937602809375020895D6
:10210000E0917502F0917602309721F00190F08114
:10211000E02D099480E00895EF92FF920F931F93B2
:10212000CF93DF938C01E0917502F09176023097A6
:10213000C1F10280F381E02D09958091EC0282FFCC
:1021400030C080FF04C086E794E00E94F305D0E031
:10215000C0E080E7E82E84E0F82E8091EC0280FF5A
:102160000EC0F801EC0FFD1F80811F928F93FF922C
:10217000EF920E948C060F900F900F900F90219677
:10218000C830D10551F78091EC0280FF0AC08EE67D
:1021900094E0DF91CF911F910F91FF90EF900C94FD
:1021A000F305DF91CF911F910F91FF90EF9008956C
:1021B00020917302309174022817390771F09093BF
:1021C000740280937302E0917502F0917602309769
:1021D00021F00680F781E02D099408952091710285
:1021E000309172022817390771F090937202809330
:1021F0007102E0917502F0917602309721F000842F
:10220000F185E02D0994089585B7806885BF85B76D
:10221000806885BF0895089508950C940B11089562
:102220000C940F110E9404110E940C110C940D11BA
:1022300081E008950E941B1E0E94CE0B0E94AE1EDC
:102240000C941011CF93C82F8091EC0282FF1EC016
:1022500080FF1CC08FE894E00E94F3058091EC029F
:1022600080FF14C01F92CF938AE894E09F938F93CE
:102270000E948C068091EC020F900F900F900F90AF
:1022800080FF04C088E894E00E94F3058C2FCF9172
:102290000C94FF087F928F929F92AF92BF92CF9241
:1022A000DF92EF92FF920F931F93CF93DF93CDB7FF
:1022B000DEB72A970FB6F894DEBF0FBECDBF0E94DF
:1022C0002F0C0E941811882309F46FC048E7A42E30
:1022D00042E0B42E10E000E0702E802F0E947A0BB6
:1022E0006C01F501819091905F018816990609F4BF
:1022F00056C08091EC0281FD0E94830B80E0EE24A9
:10230000E394F12C8C249D2494012E213F21232B36
:1023100009F43FC08E837F82CE20DF2081E0CD286C
:1023200009F480E088870E94241E8160782F9A87B4
:1023300089874E815F8168858A850E94FA11000F26
:10234000111FF801E858FD4F80819181E826F92698
:10235000F182E0820E948010909177028917B1F19A
:102360000E948010809377022A960FB6F894DEBF01
:102370000FBECDBFDF91CF911F910F91FF90EF90D6
:10238000DF90CF90BF90AF909F908F907F900C94F4
:1023900022118F5FEE0CFF1C8C3009F0B5CF0F5F60
:1023A0001F4F0430110509F097CF8FEF89838A837F
:1023B0001B820E94241E8160782F9D838C8349811B
:1023C0005A816B818D810E94FA11C4CF2A960FB673
:1023D000F894DEBF0FBECDBFDF91CF911F910F915B
:1023E000FF90EF90DF90CF90BF90AF909F908F9035
:1023F0007F900895CF93DF93CDB7DEB72B970FB6BD
:10240000F894DEBF0FBECDBF4F83588769877A87A8
:102410008B871E821D8285E0FE013796DE011196B4
:1024200001900D928A95E1F749815A816B817C81F7
:102430008D819E812B960FB6F894DEBF0FBECDBF67
:10244000DF91CF910C94C318FC01808191810C9491
:10245000791BCF93C82F882309F488C08238C1F430
:102460000E94801081FD82C089E30E94A71B0E9408
:102470001B1C2FEF81EE94E0215080409040E1F74B
:1024800000C0000089E30E94AE1BCF910C941B1C7E
:102490008338A1F40E94801080FD68C083E50E940B
:1024A000A71B0E941B1C2FEF81EE94E0215080405F
:1024B0009040E1F700C0000083E5E5CF8438A1F447
:1024C0000E94801082FD52C087E40E94A71B0E94D8
:1024D0001B1C2FEF81EE94E0215080409040E1F7EB
:1024E00000C0000087E4CFCF8CEF8C0F813AB8F4A6
:1024F0008C2F0E945721811139C06C2F8091D801F7
:102500009091D9010E945E1D882329F08C2F0E9492
:10251000AE1B0E941B1C8C2F0E94A71BB6CF80E213
:102520008C0F883048F4C77081E001C0880FCA95CD
:10253000EAF70E94CF1BA9CFEBE5EC0FE33040F4A4
:10254000F0E0EC5AFD4F808190E0CF910C94D810D0
:10255000C85AC73158F4EC2FF0E0EE0FFF1FEA5DC8
:10256000FD4F80819181CF910C94EE10CF91089511
:10257000882309F44BC0823871F40E94801081FFD7
:1025800045C089E30E94A71B0E941B1C89E30E948F
:10259000AE1B0C941B1C833859F40E94801080FFE2
:1025A00035C083E50E94A71B0E941B1C83E5EFCF6B
:1025B000843859F40E94801082FF28C087E40E946A
:1025C000A71B0E941B1C87E4E2CF9CEF980F913A57
:1025D000F0F290E2980F983050F4877091E001C0CB
:1025E000990F8A95EAF7892F0E94D51BD2CF9BE5D8
:1025F000980F933020F490E080E00C94D810885A23
:10260000873120F490E080E00C94EE100895CF9391
:10261000C82F0E942912C93349F42FEF87EE93E0A7
:10262000215080409040E1F700C000008C2FCF91F6
:102630000C94B812882321F00E94CF1B0C941B1C11
:102640000895882321F00E94D51B0C941B1C08952B
:10265000BF92CF92DF92EF92FF920F931F93CF938F
:10266000DF937C01D62FC72FFC01058102950F70E7
:10267000128111110E94EF1B0E94C51BD82E8823C6
:1026800071F01123B1F080E28D0F883090F082E07C
:102690000E94661C0E94C51B91E0D82ED926CC2E24
:1026A000C2949FE0C922EC2DF0E0EB59F64D0C945A
:1026B0001B29D12CF4CF0C2F0F70C07F11F0029585
:1026C000007F1123A9F0002359F080E28D0F88309C
:1026D00010F0D11109C0802F0E94CF1B0E941B1C3B
:1026E0008D2F0E94291214C0802F0E94E21BF6CF6A
:1026F0008D2F0E94B812002359F080E28D0F883090
:1027000010F0D1112CC0802F0E94D51B0E941B1CE1
:102710002C2D2850330B2430310520F40E948010DA
:102720000E94FF08DD2009F48DC10E94C11B80FDBD
:1027300089C1F70112820E94BB1B0E94471AC70180
:102740000E9443150E94BB1BDF91CF911F910F91F7
:10275000FF90EF90DF90CF90BF900C94681A802F7D
:102760000E94E81BD3CFFC2FFF70BF2EC07FC0326A
:1027700019F0B29480EFB822DD2339F0D13019F18D
:10278000112361F1002321F1ABCF112381F001115D
:1027900006C00E94021C8B290E941A13B9CF013077
:1027A000C1F70E94021C8B290E94081CB1CF0111A5
:1027B00006C00E94111C8B2D0E942113A9CF01304D
:1027C00009F4A6CFF6CF112329F0063008F0A0CFE8
:1027D0008B2DE2CF053008F09BCFEDCF002359F3CE
:1027E000D93349F42FEF37EE83E021503040804059
:1027F000E1F700C000008D2F0E94B81289CF8C2F06
:1028000086958695837069F0813009F081CF8D2F90
:102810009C2F9370111102C090E080E00E94EE1096
:1028200077CF8D2F9C2F9370111102C090E080E024
:102830000E94D8106DCF8C2F837009F041C0111108
:1028400067CF4D2F429546954770440F440F0D2F8B
:102850000F7010E030E020E0042E04C0000F111FC4
:10286000221F331F0A94D2F760E070E0CB01D4FF3F
:102870000FC06FE070E080E090E004C0660F771F4B
:10288000881F991F4A95D2F760957095809590950D
:10289000C695C695C370602B712B822B932BC230CB
:1028A00049F058F4C13019F00E94F91931CF0E9453
:1028B000E7192ECF0E940B1A2BCF0E94E51928CFC3
:1028C0008695112311F08C2F8170882309F420CF75
:1028D0004D2F429546954770440F440F0D2F0F70B2
:1028E00010E030E020E0042E04C0000F111F221F72
:1028F000331F0A94D2F760E070E0CB01D4FF0FC021
:102900006FE070E080E090E004C0660F771F881FE2
:10291000991F4A95D2F76095709580959095C695C8
:10292000C695C370602B712B822B932BC23049F05C
:1029300058F4C13019F00E94BE1AEACE0E94AC1AB7
:10294000E7CE0E94D01AE4CE0E94211AE1CECF70C9
:10295000112329F08C2F0E94471A8D2F1DCF8D2F08
:102960000E9421138C2F0E94681AD2CED23F89F187
:1029700060F4D03FC9F0D13F29F1112309F442C0DE
:102980000111AECE8C2F8F7121C0D33F39F1D43FCE
:10299000A1F7112369F1CF718C2F0E94471A63E0D0
:1029A0008C2F0E94511CB4CE112341F0053008F049
:1029B000AFCE8C2F8F710E948B1AAACE063008F0F2
:1029C000A7CEF7CF8C2F8F71112369F20E94471A7F
:1029D0009FCE8C2F8F711123C9F3C5CF112329F0FE
:1029E0008C2F8F710E94321A93CE0E942D1A90CE96
:1029F00081E00E94661C023008F48ACE82E00E94C8
:102A0000661C86CE002359F0D93309F0F4CE9FEF2F
:102A1000E7EEF3E09150E040F040E1F7EACE8C2F92
:102A20008F71A1CF4C2F4F706D2FC7010E9472097B
:102A30000E945D196DCE4C2F4F706D2FC7010E9403
:102A4000750966CEDF91CF911F910F91FF90EF90A6
:102A5000DF90CF90BF9008950F931F93CF93DF9394
:102A6000EC01688179818A810E94831B8C010E941C
:102A7000E21A0E94E419B801CE01DF91CF911F91B3
:102A80000F910C942813CF93DF93EC018B819C81E1
:102A9000892B29F08881998189238F3F19F4DF914F
:102AA000CF910895CE010E9417098823C1F3CE016A
:102AB0000E942C15CE01DF91CF910C942908882318
:102AC00021F00E94E21B0C941B1C0895882321F026
:102AD0000E94E81B0C941B1C08950E94EF1B0E948F
:102AE000FF1B0E941B1C90E080E00E94D81090E029
:102AF00080E00C94EE100E94B51B0C946D150E94A2
:102B0000DC1B0C947B15E92FE295EF70E250EE3060
:102B100070F4F0E0EB58F64D0C941B29803F19F04F
:102B200020F4883E20F481E00895843FE1F380E0C2
:102B30000895883EC0F3813FD1F7F5CF93FB8827F6
:102B400080F908950E94791B0C948315CF93DF932D
:102B500000D000D00F92CDB7DEB70F900F900F903E
:102B60000F900F90DF91CF910895CF93DF9300D016
:102B700000D000D0CDB7DEB726960FB6F894DEBFF2
:102B80000FBECDBFDF91CF9108951F93CF93DF93F9
:102B9000C091810216E0809182028C1304C0DF9103
:102BA000CF911F910895D0E01C9FF0011D9FF00D63
:102BB0001124ED57FD4F40815181628173818481E1
:102BC00095810E94B5152196C770E5CF4091B3025B
:102BD0005091B4026091B5027091B6028091B70233
:102BE0009091B8020C94B5152091810290918202C7
:102BF00056E0291302C080E0089530E0529FF001B2
:102C0000539FF00D1124ED57FD4F7181761306C0CF
:102C10007081781303C07281741304C02F5F3F4F1B
:102C20002770E7CF81E0089588EC90E00895FF9247
:102C30000F931F93CF93DF938091B802807F61F44D
:102C40008091B502882341F0C091810286E0F82E80
:102C5000809182028C1306C0DF91CF911F910F915A
:102C6000FF9008958091B6029091B702D0E000974E
:102C700041F02091B3023091B402422F43234F3FE1
:102C800041F42196C770E4CF80959095080F191FE5
:102C900017C0FC9EF001FD9EF00D1124ED57FD4F75
:102CA00041814313EECF30813213EBCF22812111CA
:102CB000E8CF038114810817190730F3081B190B9B
:102CC0004091B3025091B4026091B5027091B60286
:102CD0008091B7020E94F0070E9414160817190786
:102CE00080F68091B8028F7080618093B80286E090
:102CF0008C9FF0018D9FF00D1124E857FD4F8081CE
:102D00008F708061808383EB92E00E944315DF9196
:102D1000CF911F910F91FF900C94C5158F929F92A8
:102D2000AF92BF92CF92DF92EF92FF920F931F93D9
:102D3000CF93DF93CDB7DEB761970FB6F894DEBFC0
:102D40000FBECDBF8C0185E0F801DE011D9601901C
:102D50000D928A95E1F7D801AC901196BC9011972D
:102D600012968C908091B6029091B702009741F034
:102D70002091B3023091B40223232F3F09F0BBC14D
:102D8000811031C1C8010E944315D9C07601E81AEB
:102D9000F90AC816D90628F4809590957C01EC0CA8
:102DA000FD1C4091B3025091B4026091B502709144
:102DB000B6028091B7020E94F0070E94141620917B
:102DC000B802E816F90608F0BDC04091B60250916D
:102DD000B702822F807F09F07DC0982C452B49F0E7
:102DE0008091B3029091B402382F39233F3F09F00C
:102DF00019C14091B3025091B4026091B502709133
:102E0000B6028091B7020E94F0070E941416843F18
:102E1000914000F1C114D10429F08B2D8A218F3FFC
:102E200009F0FDC080E080FF15C0482D6B2D8A2D74
:102E30000E94F415882371F083EB92E00E94431501
:102E400086E0E3EBF2E0DF011D928A95E9F70E944C
:102E5000E6153EC0CD2829F08B2D8A218F3F09F041
:102E6000DBC080E0B82FB170EB2E80FF29C0482D69
:102E70006B2D8A2D0E94F415F82E811121C0AD868C
:102E8000BE868D859E850E94791B292F22952F70E5
:102E9000223050F0243078F49F7051F0F801958181
:102EA000907F31F49F2CD2C09F7011F08823D1F312
:102EB000805E8830B8F3C8010E944315FE2CF2CF23
:102EC000882009F4C3C08091B80281608093B80261
:102ED000912CBCC0452B49F08091B3029091B40273
:102EE000382F39233F3F09F0C5C0AD86BE868D859A
:102EF0009E850E94A215882309F444CF882009F4F6
:102F000041CF8091B802803270F02091B3023091AD
:102F1000B40238872F831986DB86CA868C87CE0158
:102F200007960E94431586E0F801A3EBB2E00190FA
:102F30000D928A95E1F70E9417160E94E6159924D2
:102F4000939484C0822F807F49F47C2DD98AC88ACB
:102F5000A501682D89890E94A6156ECF8091B602C1
:102F60009091B702892B49F08091B3029091B402FD
:102F7000382F39233F3F09F094C0AD86BE868D853A
:102F80009E850E94A215882309F4FCCE882009F4AE
:102F9000F9CE8091B802803230F22091B3023091A4
:102FA000B4023A8329831B82DD82CC828E83CE01D8
:102FB0000196B7CF86E0F801A3EBB2E001900D9245
:102FC0008A95E1F743C07C2DD98AC88AA501682D6E
:102FD00089890E94A61586E0E3EBF2E0DF011D92ED
:102FE0008A95E9F75BC0AD86BE868D859E850E9479
:102FF000A215982E882309F4C5CE86E0F801A3EB2C
:10300000B2E001900D928A95E1F783EB92E00E9485
:1030100024120E94171642C081E0882523CF81E048
:10302000882501CF9B11E5CE8A11E3CE9110E1CE28
:103030002F7020612093B8020E94E61583EB92E086
:103040000E9443158091B802F8018583892D61960D
:103050000FB6F894DEBF0FBECDBFDF91CF911F91A9
:103060000F91FF90EF90DF90CF90BF90AF909F9027
:103070008F9008959B1139CF8A1137CF811035CFAA
:10308000D80115962C93C8010E94431586E0F801DB
:10309000A3EBB2E001900D928A95E1F70E94E6154C
:1030A000D5CF9B116ACF8A1168CF811066CFF80106
:1030B0002583C8010E944315E3EBF2E086E0DF01BF
:1030C0001D928A95E9F7C2CF9B114CC08A114AC064
:1030D0008091B80280FD6ECF982F907F09F46ACF5F
:1030E000F8018583903F79F2982F907F905F8F70E1
:1030F000892B8583C8CFF801C380D4809090B50216
:10310000911044CE7601E81AF90AC816D90628F4B7
:10311000809590957C01EC0CFD1C4091B302509180
:10312000B4026091B5027091B6028091B7020E941C
:10313000F0070E941416E816F90608F044CF982C00
:10314000882009F41FCE8091B6029091B702892B96
:1031500049F08091B3029091B402282F29232F3F88
:1031600009F0B2CFAD86BE868D859E850E94A215E0
:103170008111D9CE8091B80281608093B802C801D4
:103180000E94431563CF1F93CF93DF93CDB7DEB774
:103190002C970FB6F894DEBF0FBECDBF4F83588774
:1031A00069877A878B879C87CE0107960E948E1647
:1031B000882369F08A859B85892B39F04F81588552
:1031C000842F85238F3F09F071C016E05FC086E031
:1031D000FE013796DE01119601900D928A95E1F776
:1031E0008A859B85892B89F388859F8189238F3FD9
:1031F00061F32091820230E0C9010196877099271E
:10320000409181024817190671F40E947F151092AF
:1032100082021092810286E0E3EBF2E0DF011D9270
:103220008A95E9F7D2CF96E0929FD001939FB00D97
:103230001124AD57BD4FFE01319601900D929A9524
:10324000E1F7809382020E94C515BFCF819FC00124
:1032500011248D579D4F0E948E168823E9F0E0912E
:1032600081021E9FF0011124ED57FD4F40815181D5
:1032700062817381848195810E94B515809181025C
:1032800090E0019687709927809381028091810256
:10329000909182028913DACF2C960FB6F894DEBF94
:1032A0000FBECDBFDF91CF911F91089569857A85BB
:1032B0008B859C850E94B51588CFEF92FF920F9366
:1032C0001F93CF93DF938C01892B81F0F12CEE2497
:1032D000E394E8012196F8018491843770F48430F6
:1032E00008F05FC08130B1F08230A1F1DF91CF9161
:1032F0001F910F91FF90EF900895853709F44CC00E
:1033000008F43DC09CE7980F903780F78F770E94B4
:10331000B81249C00E5F1F4FFE01849190E2980FD2
:10332000983060F48770FE2D01C0FF0F8A95EAF790
:103330008F2F0E94F21B0E941B1C02C00E942912A8
:103340008F2D815030F2EFE9FFE03197F1F700C0A7
:103350000000F7CF0E5F1F4FFE01849190E2980F9F
:10336000983050F48770FE2D01C0FF0F8A95EAF760
:103370008F2F0E94F81BDFCF0E94B812E1CF0E5FA3
:103380001F4FFE01C491C150D8F28FE99FE0019711
:10339000F1F700C00000F7CF0E5F1F4FFE01F49061
:1033A000CFCF0E9429128E01CBCF08950C94D5194E
:1033B0000E94D6196093DB027093DC028093DD02D9
:1033C0009093DE020C946D1508950C94D8190F9308
:1033D0001F930091DB021091DC022091DD023091FD
:1033E000DE02602B712B822B932B1F910F910C947B
:1033F000D8190F931F930091DB021091DC022091EA
:10340000DD023091DE0260237123822393231F911A
:103410000F910C94D8190F931F930091DB02109118
:10342000DC022091DD023091DE02602771278227C5
:1034300093271F910F910C94D8190C94D5190C94C3
:103440001D1A0E941F1A6093D7027093D8028093AE
:10345000D9029093DA020C946D1560E070E0CB0114
:103460000C94211A0F931F9341E050E060E070E04C
:103470008A019B0104C0000F111F221F331F8A9570
:10348000D2F7C901B8011F910F910C94211A0F9323
:103490001F9341E050E060E070E004C0440F551F0E
:1034A000661F771F8A95D2F78091D7029091D80234
:1034B000A091D902B091DA028A019B01082B192B45
:1034C0002A2B3B2BC901B8011F910F910C94211A93
:1034D0000F931F9341E050E060E070E004C0440FA0
:1034E000551F661F771F8A95D2F7CB01BA016095E9
:1034F0007095809590950091D7021091D8022091F7
:10350000D9023091DA0260237123822393231F9121
:103510000F910C94211A0F931F9341E050E060E04B
:1035200070E004C0440F551F661F771F8A95D2F7BD
:103530008091D7029091D802A091D902B091DA027D
:103540008A019B01082719272A273B27C901B801AF
:103550001F910F910C94211A0F931F930091D70282
:103560001091D8022091D9023091DA02602B712B90
:10357000822B932B1F910F910C94211A0F931F9361
:103580000091D7021091D8022091D9023091DA022D
:1035900060237123822393231F910F910C94211A8E
:1035A0000F931F930091D7021091D8022091D90256
:1035B0003091DA0260277127822793271F910F919C
:1035C0000C94211A08952CE0929F800D1124982FBD
:1035D000977041E001C0440F9A95EAF78695869569
:1035E000869595E0899FF0011124E754FD4F90E006
:1035F00080E070E05191DF0111979B01082E02C01D
:10360000369527950A94E2F72170219525272423E2
:1036100025272C9301968530910561F708952CE0BC
:10362000929F800D1124982F977086958695869588
:1036300025E0829FF0011124E754FD4F50E040E067
:1036400080E0219130E0092E02C0369527950A943A
:10365000E2F721703327042E01C0220F0A94EAF703
:10366000822B4F5F5F4F4530510559F70895BF9248
:10367000CF92DF92EF92FF920F931F93CF93DF933E
:103680008C01C090D702D090D802E090D902F0907F
:10369000DA028091DB029091DC02A091DD02B09110
:1036A000DE02C82AD92AEA2AFB2ACFE1D0E0BC2EC2
:1036B000D701C6010C2E04C0B695A795979587959E
:1036C0000A94D2F780FD0EC0219788F7B12C8B2D7C
:1036D000DF91CF911F910F91FF90EF90DF90CF90EE
:1036E000BF900895B8018C2F0E949209019761F351
:1036F000EECFCF93DF93EC010E94371BBE01DF9129
:10370000CF910C9492091F93CF93DF93EB0190918B
:103710008002992331F0CB01DF91CF911F910C945E
:10372000791B882379F0CB010E94371B182F682F53
:10373000CE010E94E31ABE01812FDF91CF911F912C
:103740000C949209CB010E940F1B182FF4CF682F05
:103750008091D8019091D9010C94941D682F80918B
:10376000D8019091D9010C94961D8091D801909127
:10377000D9010C94981D8091DF02859585958595DA
:1037800008958091DF02877008959091DF0297700D
:1037900081E009F480E008958091EB020895909112
:1037A000EB02892B8093EB02089580959091EB02B8
:1037B00098239093EB0208951092EB020895809164
:1037C000EA0208959091EA02892B8093EA02089513
:1037D00080959091EA0298239093EA0208951092BE
:1037E000EA0208959091E902892B8093E9020895F5
:1037F00080959091E90298239093E90208951092A0
:10380000E90208958091E002089508950C94051C42
:103810009091E002981721F08093E0020C94061C2E
:1038200008958091E002882329F01092E00280E060
:103830000C94061C0895E091D801F091D901809173
:10384000EB028083E091D801F091D90180819091C1
:10385000EA02892B8083E091D801F091D90180811F
:103860009091E902892B80839091E002992381F065
:10387000E091D801F091D9018081892B80838091DA
:10388000D8019091D9010E944C1D81110E94111CF8
:103890008091D8019091D9010C948C1008950C94CA
:1038A0004E1C98E0899F90011124622B6093DF02E7
:1038B0000E94471A8091DF028595859585950C9425
:1038C0004F1C1092DF0280E00C944F1C9091DF029D
:1038D000809589238093DF02282F277071F4282F89
:1038E000082E000C330B9217130639F08595859539
:1038F00085950E94681A0C94611C08959093670244
:10390000809366020895829590E09C01220F331FF8
:10391000220F331F2C7C95958795959587958373FA
:10392000282B30E0C901880F991F8A7A3595279591
:103930002575822B0895CF93DF93D92F0E94831C86
:10394000C82F8D2F0E94831C9C2FDF91CF9108954B
:1039500090E080E00E94292921E08C3E9E4F09F0F2
:1039600020E0822F089582E090E00C94212983E0EA
:1039700090E00C942129CF9384E090E00E942129CB
:10398000C82F81E290E00E942129982F8C2FCF919F
:103990000895CF93C92F682F84E090E00E942F29CB
:1039A0006C2F81E290E0CF910C942F29AB01BC01E8
:1039B0008FE090E00C944129AB01BC0183E190E0E1
:1039C0000C94412960E070E0CB010C94DC1C60E0B9
:1039D00070E0CB010E94D61C0C94E21C6CEE7EEFD2
:1039E00090E080E00E944D2960E082E090E00E943B
:1039F0002F2960E083E090E00E942F291092DB02E3
:103A00001092DC021092DD021092DE0260E084E08F
:103A100090E00E942F2960E081E290E00E942F292F
:103A200060E085E090E00E942F2960E086E090E071
:103A30000E942F296FEF87E090E00E942F2940E03D
:103A400050E0BA0188E090E00E94412960E08DE0FA
:103A500090E00E942F2940E050E0BA0188E190E018
:103A60000E94412960E087E190E00E942F2940E018
:103A700050E0BA018CE190E00E94412960E080E2D0
:103A800090E00E942F290C94E71C0C94EE1C682FE8
:103A90008EE090E00C942F299C012E5F3F4FAC01EB
:103AA000485F5F4F80E02417350709F40895F90156
:103AB00091919F019923B9F38F5FF5CF662349F068
:103AC000FC01329608962191261729F0E817F9078C
:103AD000D1F780E0089581E008959C01FC013296C1
:103AE0009FEF80E04191461751F09F3F19F441113B
:103AF00001C0982F8F5F8630A9F79F3F09F4089582
:103B0000290F311D97FD3A95F90162830895FC0153
:103B1000329608962191261303C0DF0111971C925B
:103B2000E817F907B9F708950C946D1D0C94871DDB
:103B3000029626E0FC0111922A95E9F7089508956E
:103B400008950C94A01D0E94A11D8091170384303C
:103B500049F11092ED0288E190E020E40FB6F8946C
:103B6000A895809360000FBE2093600080E00E94C3
:103B7000FF080E94A11D83B7817F846083BF83B744
:103B8000816083BF7894889583B78E7F83BF0FB69B
:103B9000F894A895809160008861809360001092ED
:103BA00060000FBE08950895CF930E949F1D0E944C
:103BB0002F0C0E94D31DC0E08C2F0E947A0B892B02
:103BC00031F4CF5FC430C1F780E0CF91089581E038
:103BD000FCCF08950C94E91D0E947F150E9480106F
:103BE0000E94FF080C94EA1D1F921FB61F92112419
:103BF0008F939F93AF93BF938091ED02811113C078
:103C000080910D0390910E03A0910F03B0911003CA
:103C10004196A11DB11D80930D0390930E03A093B7
:103C20000F03B0931003BF91AF919F918F911F909D
:103C30001FBE1F90189582E084BD93E095BD9AEF5A
:103C400097BD80936E0008952FB7F89480910D036F
:103C500090910E03A0910F03B09110032FBF089510
:103C60002FB7F89460910D0370910E0380910F03AC
:103C7000909110032FBF0895CF92DF92EF92FF92A1
:103C80000F931F932FB7F89440910D0350910E039B
:103C900060910F03709110032FBF6A017B01EE2426
:103CA000FF248C0130E020E0C016D106E206F306C6
:103CB00050F0481B590BCA011F910F91FF90EF90D4
:103CC000DF90CF90089541505109F3CF78941F921F
:103CD0001FB61F9211248F939F93AF93BF93809130
:103CE0000D0390910E03A0910F03B0911003019664
:103CF000A11DB11D80930D0390930E03A0930F039C
:103D0000B0931003BF91AF919F918F911F901FBEF1
:103D10001F90189581E08093E00080E28093D800A6
:103D20001092C9008FE19EE40197F1F700C00000F6
:103D300087E090EBDC018093200390932103A09314
:103D40002203B093230388E19CE00FB6F894A89572
:103D5000809360000FBE90936000FFCF0E94A81C6C
:103D6000811102C00E94451D0E94B31C8093EC0289
:103D70000E94BB1C90931203809311030E94B71CF6
:103D8000682F70E090E080E00C94E519CF93C82F85
:103D90001F928F9388EA94E09F938F930E948C06E2
:103DA00061E070E080E090E004C0660F771F881F3C
:103DB000991FCA95D2F70E94E5190F900F900F90A6
:103DC0000F90CF910C947F15CF93DF938B3109F433
:103DD00009C208F0A0C18B3009F4C7C108F06AC15C
:103DE000863009F4D5C148F4853009F4A2C185E3D1
:103DF00099E00E94F30580E0DBC1873009F4DBC164
:103E00008830A9F784ED99E00E94F30585E299E0F6
:103E10000E94F3050E94B71C1F928F9382E299E0E3
:103E20009F938F930E948C0680E299E00E94F30595
:103E30000E94B31CC82F8DE099E00E94F3051F92E9
:103E4000CF9388E099E09F938F930E948C0686E041
:103E500099E00E94F3058CEF98E00E94F3058C2F07
:103E600081701F928F9389EF98E09F938F930E94A8
:103E70008C0687EF98E00E94F3058DEE98E00E9493
:103E8000F305C1FB882780F91F928F938AEE98E093
:103E90009F938F930E948C0688EE98E00E94F30512
:103EA0008CED98E00E94F305C2FB882780F91F92F1
:103EB0008F9389ED98E09F938F930E948C0687EDF6
:103EC00098E00E94F3058EEC98E00E94F305C3FB96
:103ED000CC27C0F91F92CF938BEC98E09F938F93E0
:103EE0000E948C0689EC98E00E94F3050E94BB1C9E
:103EF000EC0185EB98E00E94F305DF93CF9380EB14
:103F000098E09F938F930E948C068EEA98E00E941F
:103F1000F30585E998E00E94F3058C2F81701F92CC
:103F20008F9382E998E09F938F930E948C068DB7C0
:103F30009EB780960FB6F8949EBF0FBE8DBF80E9E6
:103F400098E00E94F30589E798E00E94F305C1FB21
:103F5000882780F91F928F9386E798E09F938F932D
:103F60000E948C0684E798E00E94F30582E698E0C0
:103F70000E94F3058D2F81701F928F938FE598E03B
:103F80009F938F930E948C068DE598E00E94F30525
:103F90008BE498E00E94F305D695D1701F92DF93D1
:103FA00088E498E09F938F930E948C0686E498E0C3
:103FB0000E94F30584E398E00E94F305C2FB882782
:103FC00080F91F928F9381E398E09F938F930E94D3
:103FD0008C068FE298E00E94F3058DE198E00E9444
:103FE000F305C3FB882780F91F928F938AE198E03D
:103FF0009F938F930E948C0688E198E00E94F305BE
:104000008EE098E00E94F305C4FB882780F91F9298
:104010008F938BE098E09F938F930E948C0689E0AA
:1040200098E00E94F30587EF97E00E94F305C5FB37
:10403000882780F91F928F9384EF97E09F938F9347
:104040000E948C0682EF97E00E94F30586ED97E0D0
:104050000E94F305C6FB882780F91F928F9383ED9A
:1040600097E09F938F930E948C068DB79EB78096A2
:104070000FB6F8949EBF0FBE8DBF81ED97E00E94F2
:10408000F30589EC97E00E94F305C7FBCC27C0F944
:104090001F92CF9386EC97E09F938F930E948C069C
:1040A00084EC97E00E94F3050F900F900F900F9013
:1040B00081E07EC0803109F4ADC080F48E3009F01B
:1040C00096CE9091EC02892F8B7F92FF8460809333
:1040D000EC0282FF9CC080E699E090C0863109F432
:1040E000A9C0893109F083CE87EF95E00E94F305DE
:1040F00089ED95E00E94F30580EA95E00E94F305C2
:104100008EE695E00E94F30581E495E00E94F305B8
:1041100086E195E02CC08A32A1F1E8F4873269F19A
:1041200028F48E3108F463CE8D5128C0893209F00D
:104130005ECE0E947F1583EA99E00E94F3059FEF0F
:1041400023ED80E3915020408040E1F700C0000063
:104150000E948A1EADCF833468F48A3308F0A1C070
:10416000853359F0883309F042CE81E296E00E940F
:10417000F3059ECF833409F03ACE80E00E94C61E3C
:1041800097CF83EC99E00E94F3050E94451D90CFE4
:104190008091EC02807F8093EC0286E096E00E94A2
:1041A000F3058FEB99E00E94F30581E08093EE0226
:1041B000DF91CF9108959091EC02892F8E7F90FF2F
:1041C00081608093EC0280FF03C087E999E0CFCF44
:1041D0008AE899E00E94F3058091EC02817F809348
:1041E000EC0266CF9091EC02892F8D7F91FF826067
:1041F0008093EC0281FF08C08DE799E00E94F305EF
:104200008091EC028160EBCF8FE699E0B0CF80E542
:1042100099E0ADCF9091EC02892F877F93FF886062
:104220008093EC0283FF03C084E499E0E7CF87E347
:1042300099E09DCF88E095E00E94F3050E948010F0
:104240001F928F938EEE94E09F938F930E948C0623
:104250008091E4011F928F9387ED94E09F938F9359
:104260000E948C068091FB021F928F9384EC94E055
:104270009F938F930E948C060E94301E9F938F9372
:104280007F936F938DEA94E09F938F930E948C06A7
:104290008DB79EB742960FB6F8949EBF0FBE8DBFE6
:1042A00007CF89536BCF80E008950C945321CF93AF
:1042B000C82F8091EE02882331F08130B1F0109246
:1042C000EE0280E010C0E091D801F091D901808128
:1042D0008232B9F78C2F0E94532181111CC08C2F80
:1042E0000E94E41E8170CF910895E091D801F09171
:1042F000D9018081823271F38C2F0E945521811166
:1043000019C0C431C9F050F4CB3061F082EA94E0B6
:104310000E94F30513C081E090E0E4CFC93261F060
:10432000C833A1F786E096E00E94F30584EA94E0A2
:104330000E94F30581E0D6CF1092EE0280E0D2CF4A
:104340008091FA02089508959FB7F8941092F102AF
:104350009FBF90911703943009F048C02091E90065
:104360002F703091EC00932F917030FD90E8922BDC
:1043700023E02093E9002091EB0020FF34C020913E
:10438000EE0027FF30C02091EF02222321F0209180
:10439000E80025FF28C01092EF0226E03091E800E7
:1043A00035FF14C08093F1008091E80085FD27C09F
:1043B0008091E80080FFFCCF8091E8008E778093A9
:1043C000E8009F709093E90080E008953091170312
:1043D000343049F43091EB0035FD05C0215041F4F3
:1043E00081E08093EF029F709093E9008FEF089532
:1043F000EFE9FFE03197F1F700C00000CFCF8FB7B2
:10440000F89421E02093F1028FBFDBCFCF93DF93AD
:1044100000D00F92CDB7DEB790911703943019F505
:1044200089837B836A8382E08093E9008FEF909198
:10443000E800815095FD06C095ED9A95F1F70000D2
:104440008111F5CF8091E80085FF0DC050E040E07C
:1044500063E070E0CE0101960E947F248091E80025
:104460008E778093E8000F900F900F90DF91CF919F
:104470000895CF93DF93EC010E946224823011F003
:10448000843031F4BE0184E0DF91CF910C94062298
:10449000DF91CF910895BC0183E00C940622CF9365
:1044A000DF93EC010E946224823011F0843039F5F0
:1044B00081E08093E9008FEF9091E800815095FDB5
:1044C00006C095ED9A95F1F700008111F5CF809126
:1044D000E80085FF14C050E040E068E070E0CE01E5
:1044E0000E947F248091E8008E778093E80088E026
:1044F000FE01A2EFB2E001900D928A95E1F7DF9103
:10450000CF91089584E09AE00E94F305809116030C
:10451000811109C00E940F260E946C268091E20042
:1045200084608093E200089580E09AE00E94F305A1
:104530001092160308958CEF99E00C94F30588EF20
:1045400099E00C94F30584EF99E00E94F3050C9434
:10455000EC1D2091F0022F5F822F62E30E940F2951
:10456000992319F02093F00208951092F00280919F
:10457000F1028823F1F0809117038430C1F4909107
:10458000E9009F702091EC00822F817020FD80E86F
:10459000892B93E09093E9009091EB0090FF04C089
:1045A0009091EE0097FD08C08F708093E900109203
:1045B000F10208951092F1009091E80095FDFACF74
:1045C0009091E80090FFF0CF9091E8009E77909353
:1045D000E800EACF42E061EC81E00E948B2542E2F4
:1045E00061EC82E00E948B2542E261EC83E00C9456
:1045F0008B2580911903833009F45FC030F481303A
:10460000C1F1823009F49BC008958A3009F487C053
:104610008B3009F46DC0893009F04EC080911803C9
:10462000813209F049C080911C0390911D030297CB
:1046300008F042C08091E800877F8093E800809175
:10464000E80082FF35C09091F3008091F20002975C
:1046500029F48091F1008B7F813021F48091F10069
:104660008093FA028091E8008B778093E8000C94A5
:10467000BF2580911803813AF9F48091E800877F83
:104680008093E80080911C0390911D03892B61F4B5
:1046900068E082EF92E070E00E94CE248091E80012
:1046A0008B778093E800089560E090E080E0F3CF9E
:1046B000809117038111C3CF089580911803813A27
:1046C000D9F780911C0390911D03892BA9F7809144
:1046D000E800877F8093E8008091E80080FFFCCFAE
:1046E0008091E4018093F1008091E8008E77BDCF46
:1046F00080911803813201F780911C0390911D0372
:10470000892BD1F68091E800877F8093E8000E9492
:10471000BF2580911A038093E4010C947F1580914A
:104720001803813249F68091E800877F8093E80082
:104730000E94BF2580911B038093FB020895809106
:104740001803813A09F0B8CF8091E800877F809301
:10475000E8008091E80080FFFCCF8091FB02C2CF8F
:1047600084B7877F84BF0FB6F894A89580916000C6
:10477000886180936000109260000FBE80E890E036
:104780000FB6F89480936100909361000FBE0E9471
:1047900012110E940F260E946C268091E200846014
:1047A0008093E20084EA91E20E947E1C78940E9449
:1047B000F4280E941A118AED91E00E947B1083EE8A
:1047C00099E00E94F30580911703853019F00E944B
:1047D0004A11F9CF8FED99E00E94F3050E94A31DC5
:1047E00080911503882379F30E94D41D882359F3FF
:1047F0000E946924E8CF0C94FD23292F332723300E
:10480000310521F168F42130310509F449C0223025
:10481000310509F44AC090E080E030E020E029C092
:104820002132310581F122323105A9F7633071055A
:1048300090F7FB01EE0FFF1FE65AFD4F20813181FB
:10484000695A7D4FFB01808190E013C09927813028
:10485000910599F0009741F08230910589F0039716
:10486000D1F6E8E0FAE002C0E6E3FAE0849190E0F5
:104870009F01FA01318320830895E4E2FAE0F6CF44
:10488000EEE0FAE0F3CF6330710528F6660F771F8C
:10489000FB01E05AFD4F2081318189E090E0E9CFB2
:1048A00082E190E025E93AE0E4CF8BE590E02AE36D
:1048B0003AE0DFCF80911703843011F482E008954D
:1048C00081E008958091FC02811102C00C945A2469
:1048D000089580E189BD82E189BD09B400FEFDCF64
:1048E0008091D8008F7D8093D8008091E000826015
:1048F0008093E0008091E00081FDFCCF0895AF92AD
:10490000BF92CF92DF92FF920F931F93CF93DF93CB
:104910006C01EB018A010E94DE25F82E811123C073
:104920000115110539F0F80180819181C81BD90B5F
:10493000C80ED91EB12CA12C2097A9F08091E800B7
:1049400085FD22C08091E8008E778093E8000115F4
:104950001105A1F0F80180819181A80EB91EB182E4
:10496000A08285E0F82E8F2DDF91CF911F910F91BE
:10497000FF90DF90CF90BF90AF9008950E94DE250A
:104980008823D1F2F82EEFCFF60181916F01809349
:10499000F1002197FFEFAF1ABF0ACECFFC01809143
:1049A0001E0390911F0386179707A0F061157105EC
:1049B00029F49091E8009E779093E80090E06115CB
:1049C000710551F4911108C08091E80082FF34C054
:1049D00080E00895BC01F2CF809117038823C1F1D4
:1049E0008530C1F18091E80083FD30C08091E800FE
:1049F00082FDEACF8091E80080FFE1CF8091F30053
:104A00002091F200382F6115710519F02830310519
:104A100058F091E02830310509F090E02091E8004D
:104A20002E772093E800CBCF81918093F1006150E5
:104A300071092F5F3F4FE7CF80911703882341F023
:104A4000853041F08091E80083FFBECF81E008957A
:104A500082E0089583E00895FC0180911E03909107
:104A60001F0386179707A0F06115710529F480913F
:104A7000E8008E778093E80090E06115710551F4AD
:104A8000911108C08091E80082FF35C080E0089550
:104A9000BC01F2CF809117038823C9F18530C9F199
:104AA0008091E80083FD31C08091E80082FDEACF6B
:104AB0008091E80080FFE1CF8091F3002091F20027
:104AC000382F6115710519F02830310558F091E043
:104AD0002830310509F090E08091E8008E778093CE
:104AE000E800CBCF84918093F10031966150710939
:104AF0002F5F3F4FE6CF80911703882341F0853029
:104B000041F08091E80083FFBDCF81E0089582E00D
:104B1000089583E00895982F973028F08F70809340
:104B2000E90081E008959093E900242F762F50E06A
:104B3000981731F07091EC002091ED005091F00049
:104B400021FD02C09F5FE8CF3091EB003E7F3093A4
:104B5000EB003091ED003D7F3093ED003091EB00A4
:104B600031603093EB007093EC002093ED00509394
:104B7000F0002091EE0027FDE5CF80E008958091C0
:104B8000180387FF13C08091E80082FF06C0809160
:104B9000E8008B778093E80004C0809117038111AF
:104BA000F2CF0895809117038823D9F38091E8000C
:104BB00080FFF8CF8091E8008E77ECCF2091E40061
:104BC0003091E50095E6A9012091EC00822F8170DB
:104BD00020FF06C08091E80080FF06C080E00895B5
:104BE0002091E80022FD1AC080911703882389F0E4
:104BF000853089F08091EB0085FD0FC02091E400A5
:104C00003091E50042175307F9F29150E1F684E044
:104C1000089582E0089583E0089581E008950E9458
:104C20007D260E948526E0EEF0E080818160808311
:104C3000E8EDF0E080818F77808319BCA7EDB0E0CC
:104C40008C918E7F8C9380818F7E8083109216034F
:104C500008950F931F93CF93DF930E947D260E94A8
:104C60008526C8EDD0E088818F7788838881806829
:104C7000888388818F7D888319BC109217031092D6
:104C80001303109215031092140300EE10E0F801C4
:104C900080818B7F808388818160888342E060E0AF
:104CA00080E00E948B25E1EEF0E080818E7F8083A2
:104CB000E2EEF0E080818160808380818860808383
:104CC000F80180818E7F8083888180618883DF9175
:104CD000CF911F910F910895E8EDF0E080818F7ED4
:104CE0008083E7EDF0E080818160808384E082BF93
:104CF00081E0809316030C942926E8EDF0E0808192
:104D00008E7F80831092E20008951092DA00109254
:104D1000E10008951F920F920FB60F9211242F9366
:104D20003F934F935F936F937F938F939F93AF9333
:104D3000BF93EF93FF938091E10082FF0BC08091BE
:104D4000E20082FF07C08091E1008B7F8093E10049
:104D50000E94A9228091DA0080FF19C08091D800BA
:104D600080FF15C08091DA008E7F8093DA008091F9
:104D7000D90080FF96C080E189BD82E189BD09B478
:104D800000FEFDCF81E0809317030E948222809174
:104D9000E10080FF19C08091E20080FF15C0809182
:104DA000E2008E7F8093E2008091E2008061809338
:104DB000E2008091D80080628093D80019BC85E021
:104DC000809317030E949F228091E10084FF2BC0F3
:104DD0008091E20084FF27C080E189BD82E189BD26
:104DE00089B5982F917080FFFBCF8091D8008F7D7F
:104DF0008093D8008091E1008F7E8093E1008091C4
:104E0000E2008F7E8093E2008091E20081608093D7
:104E1000E20080911303882309F449C084E0809361
:104E200017030E94A3228091E10083FF29C0809193
:104E3000E20083FF25C08091E100877F8093E1003D
:104E400082E080931703109213038091E1008E7F1C
:104E50008093E1008091E2008E7F8093E200809158
:104E6000E20080618093E20042E060E080E00E9426
:104E70008B258091F00088608093F0000E949B2237
:104E8000FF91EF91BF91AF919F918F917F916F9122
:104E90005F914F913F912F910F900FBE0F901F90F8
:104EA000189519BC109217030E94942270CF80911C
:104EB000E30087FD93E090931703B3CF1F920F9207
:104EC0000FB60F9211242F933F934F935F936F93DD
:104ED0007F938F939F93AF93BF93CF93DF93EF9382
:104EE000FF93D091E900DF708091EC00C82FC17072
:104EF00080FDC0E81092E9008091F000877F8093E8
:104F0000F00078940E94A2271092E9008091F000AE
:104F100088608093F000CD2BCF70C093E900FF91A3
:104F2000EF91DF91CF91BF91AF919F918F917F9141
:104F30006F915F914F913F912F910F900FBE0F9006
:104F40001F9018951F93CF93DF93CDB7DEB7AA9725
:104F50000FB6F894DEBF0FBECDBF88E193E020917D
:104F6000F100FC012193CF01F3E080329F07B9F7F4
:104F70000E94F9228091E80083FF1EC180911803EE
:104F8000909119039A3008F017C1E92FF0E0ED571E
:104F9000F64D0C941B29803899F0823809F00CC129
:104FA00080911C038F70873008F006C18093E90060
:104FB0008091EB0085FB882780F91092E90006C0FC
:104FC0008091140390911503911182609091E800F3
:104FD000977F9093E8008093F1001092F100809108
:104FE000E8008E77E5C0882309F4D3C0823009F049
:104FF000E3C080911A038111D6C080911C038F7089
:105000002FEF280F263008F0D7C08093E9002091B9
:10501000EB0020FFC8C0933031F48091EB00806238
:105020008093EB00C0C09091EB0090619093EB00F7
:1050300021E030E001C0220F8A95EAF72093EA00D0
:105040001092EA008091EB008860EACF8111B4C031
:1050500010911A031F778091E3008078812B809351
:10506000E3008091E800877F8093E8000E94BF25DD
:105070008091E80080FFFCCF8091E30080688093FE
:10508000E30082E0111183E08093170395C08058FC
:10509000823008F091C080911A0390911B038C3DDF
:1050A00023E09207A1F583E08A838AE289834FB7E0
:1050B000F894DE01139620E03EE051E2E32FF0E0A9
:1050C00050935700E49120FF03C0E295EF703F5FDB
:1050D000EF708E2F90E0EA30C0F0C7968D939D93CD
:1050E0002F5F243159F74FBF8091E800877F80936D
:1050F000E8006AE270E0CE0101960E94CE24809121
:10510000E8008B778093E80057C0C096E7CF6091A6
:105110001C0370911D03AE014F5F5F4F0E94FB2384
:10512000BC01892B09F448C09091E800977F9093C7
:10513000E80089819A810E942C25E1CF8038E1F531
:105140008091E800877F8093E8008091130380932B
:10515000F10045CF811130C090911A03923060F573
:105160008091E800877F8093E800909313030E946A
:10517000BF2580911303882311F084E005C080913E
:10518000E30087FDFACF81E0809317030E94EA22B3
:1051900013C080911A03813079F481E0933009F0D3
:1051A00080E0809315031092E9008091E800877FEA
:1051B0008093E8000E94BF258091E80083FF0AC029
:1051C0008091E800877F8093E8008091EB00806207
:1051D0008093EB00AA960FB6F894DEBF0FBECDBF4A
:1051E000DF91CF911F910895CF938091170388236A
:1051F000A1F0C091E900CF709091EC00892F8170EF
:1052000090FD80E8C82B1092E9008091E80083FDB2
:105210000E94A227CF70C093E900CF910895991BF7
:1052200079E004C0991F961708F0961B881F7A959D
:10523000C9F780950895EE0FFF1F0590F491E02DBA
:105240000994F999FECF92BD81BDF89A992780B54E
:105250000895A8E1B0E042E050E00C945529262FD3
:10526000F999FECF92BD81BDF89A019700B402165C
:1052700039F01FBA20BD0FB6F894FA9AF99A0FBE0A
:1052800008950396272F0E9430290E942F29252F49
:105290000E943029242F0C9430290196272F0E9438
:1052A00030290C942F29DC01CB01FC01F999FECFA8
:1052B00006C0F2BDE1BDF89A319600B40D9241509E
:1052C0005040B8F70895F894FFCF5B135B13B31306
:1052D000B313FF138813881388131B14A714B61471
:1052E000B6141215881388131B158E158E15971575
:1052F000971599159715971597158E158E159E1557
:10530000971597159E15CB27F327DC28F327DC2864
:0A53100026284728DC289E28AA283A
:10531A000100000100000100000000000000000080
:10532A000000000000000000000000000000000073
:10533A000000000000000000000000000000000063
:10534A000000000000170F270F370F0000000000B1
:10535A00000000000000000000D301170F270F37DC
:10536A000F0000000000000000000000000000CF55
:10537A000100001A079D060000000000000000005E
:10538A0000000000000000000029079E060000003F
:10539A0000000000000000000000000000000038CB
:1053AA00079F060000000000000000000000000047
:1053BA0000000000005407B00600000000000000D2
:1053CA0000000000000000000000006E07CC06008C
:1053DA00000000000000000000000000000000358E
:1053EA0000350231003102FFE102A0214F22A32140
:1053FA004B22392201E200E900EA00B500B600B703
:10540A0000CD008301CC008A01920194012102237C
:10541A000224022502260227022A02B300B4006FE0
:10542A0000700081828397953733323130C6F0F1AC
:10543A00F4F5F7F69496E200E900EA00B500B60042
:10544A00B700CD008301CC008A01920194012102A8
:10545A00230224022502260227022A02B300B400EC
:10546A006F007000818283403222FB0AC90AA70AB0
:06547A004C0A650A7E0ADF
:00000001FF
