:100000000C94ED040C9434050C9434050C943405D4
:100010000C9434050C9434050C9434050C9434057C
:100020000C9434050C9434050C941A220C94EE2292
:100030000C9480190C9434050C9434050C943405FC
:100040000C9434050C9434050C9434050C9434054C
:100050000C9434050C94F2190C9434050C9434056A
:100060000C9434050C9434050C9434050C9434052C
:100070000C9434050C9434050C9434050C9434051C
:100080000C9434050C9434050C9434050C9434050C
:100090000C9434050C9434050C9434050C943405FC
:1000A0000C9434050C9434050C9434052900140088
:1000B0001A000800150017001C0018000C001200A0
:1000C00013004C002B4304611662070009610A000B
:1000D0000B000D000E000F0033003462E1001D61C3
:1000E0001B620600190005001100100036003700E1
:1000F00038612862E000E100E300E2002A412A685A
:100100002C622C425061516252624F610100260202
:1001100027022D002E00000000002A005F00600072
:10012000610056002B444A614E624B624D612A4584
:100130003D003B005C005D005E0057000100506127
:10014000516252624F6100000251B20059005A00E0
:100150005B005800010001000100010001000100E6
:1001600001002C4462006300550054451E001F002E
:100170002000210022002300240025002600270063
:100180002D002E001E021F02200221022202230245
:1001900024022502260227022D022E0239620100C6
:1001A0003500010001000100490046002F00300029
:1001B0003100010001000100010001000100010007
:1001C00001530100AE00AA00A900A8006800690060
:1001D0006A006B006C006D006E006F0070007100B3
:1001E00072002A000100E000E1004C003B00010029
:1001F0003B005064510052004F6428000100010090
:10020000010001000100010001004A614E624B62E1
:100210004D61010001000100010001002800010002
:10022000010001004A004E004B004D00010001009A
:100230006800690001000100010001002A0054006B
:1002400055004C000100E000E1004C003B000100C3
:10025000010001005061516252624F000100010033
:100260000100010001000100010001004A614E622D
:100270004B624D610100010001000100010001001D
:100280000153010001000100010001003A003B00A0
:100290003C003D003E003F00400041004200430062
:1002A00044004500005C0100010001000100010064
:1002B00001000100210236002202010001000100BC
:1002C0000100010001000100010001000100010026
:1002D0000100010001000100010001000100010016
:1002E0000100010001000100530001004445425596
:1002F000473A2064697361626C65642E0A00444564
:100300004255473A20656E61626C65642E0A000AA8
:10031000002530313662003A200025303258000A7C
:10032000722F632030313233343536373839414219
:10033000434445460A000A002530325820006B65C8
:1003400079626F6172645F7265706F72743A2000D7
:100350000A0025303258006B6579626F6172645F04
:100360007365745F6C65643A20003F00433E200073
:100370004C25640A0074696D65725F72656164334F
:100380003228293A202530346C580A006B6579628E
:100390006F6172645F69646C653A2025580A006B6E
:1003A0006579626F6172645F70726F746F636F6C96
:1003B0003A2025580A00686F73745F6B6579626F25
:1003C0006172645F6C65647328293A2025580A00BD
:1003D0000A092D20537461747573202D0A00474358
:1003E000433A20382E332E30204156522D4C49426C
:1003F000433A20322E302E30204156525F41524334
:10040000483A20617672350A004F5054494F4E5396
:100410003A204C5546412045585452414B455920AD
:10042000434F4E534F4C4520434F4D4D414E44207A
:10043000343039360A004255494C443A2022302E95
:10044000362E3430302D31302D67353361383166FA
:100450002D646972747922202831313A30303A346F
:1004600033204665622020382032303230290A009D
:100470005649443A2030784645454428596F7572AC
:100480005F4D6F6D29205049443A2030783041301B
:1004900043287468657269636B29205645523A2077
:1004A0003078343434340A00444553433A204A7592
:1004B000737420616E6F74686572206F7274686FF8
:1004C0000A000A092D2056657273696F6E202D0A85
:1004D000000A092D20436F6E736F6C65202D0A454D
:1004E00053432F713A09717569740A000A092D2066
:1004F0004D61676963202D0A443A09446562756756
:10050000204D65737361676520546F67676C650A7A
:10051000583A094D617472697820446562756720A4
:100520004D6F646520546F67676C65202D2053689C
:100530006F77206B65797072657373657320696E70
:10054000206D617472697820677269640A4B3A0998
:100550004B6579626F6172642044656275672054EF
:100560006F67676C65202D2053686F77206B657906
:100570007072657373207265706F72740A4D3A09F8
:100580004465627567204D6F75736520546F6767AA
:100590006C650A563A0956657273696F6E0A533A6A
:1005A000095374617475730A433A09416374697637
:1005B00061746520436F6E736F6C65204D6F646569
:1005C0000A46312D4631303A095377697463682001
:1005D000746F204C6179657220302D3920284631A6
:1005E00030203D204C30290A302D393A09537769A3
:1005F00074636820746F204C6179657220302D39E6
:100600000A47524156453A09537769746368207422
:100610006F204C6179657220302028616C7465729E
:100620006E617465290A423A094A756D7020746FCB
:1006300020426F6F746C6F616465720A4553433A70
:10064000094A756D7020746F20426F6F746C6F6112
:100650006465722028616C7465726E617465290A24
:10066000453A095072696E7420454550524F4D20ED
:1006700053657474696E67730A4253504143453A37
:1006800009436C65617220454550524F4D0A000A7E
:10069000002575002E6E6B726F3A20000A002575DA
:1006A000002E737761705F6261636B736C61736856
:1006B0005F6261636B73706163653A20000A0025B5
:1006C00075002E737761705F67726176655F657321
:1006D000633A20000A002575002E6E6F5F6775690A
:1006E0003A20000A002575002E737761705F7261F1
:1006F0006C745F726775693A20000A002575002ED8
:10070000737761705F6C616C745F6C6775693A20B8
:10071000000A002575002E636170736C6F636B5F58
:10072000746F5F636F6E74726F6C3A20000A0025FD
:1007300075002E737761705F636F6E74726F6C5F9C
:10074000636170736C6F636B3A20000A002530326E
:1007500058006B65796D61705F636F6E6669672EB7
:100760007261773A20000A002575002E6D6F75734F
:10077000653A20000A002575002E6B6579626F616D
:1007800072643A20000A002575002E6D617472694A
:10079000783A20000A002575002E656E61626C654E
:1007A0003A20000A00253032580064656275675FA0
:1007B000636F6E6669672E7261773A20000A0025C2
:1007C000750064656661756C745F6C617965723A19
:1007D00020003F000A6D6F7573653A206F66660AE8
:1007E000000A6D6F7573653A206F6E0A000A6B65BB
:1007F00079626F6172643A206F66660A000A6B65FF
:1008000079626F6172643A206F6E0A000A6D6174DA
:100810007269783A206F66660A000A6D61747269BF
:10082000783A206F6E0A000A64656275673A206F35
:1008300066660A000A64656275673A206F6E0A0090
:100840000A0A4A756D70696E6720746F20626F6F57
:10085000746C6F616465722E2E2E2000433E200062
:10086000436C656172696E6720454550524F4D0A71
:10087000006565636F6E6669673A0A005B735D00C9
:100880004B6579626F6172642073746172742E0AB1
:10089000005B575D005B535D005B525D005B445D38
:1008A000005B435D00040330000000100374006827
:1008B0000065007200690063006B000000120359BC
:1008C000006F00750072005F004D006F006D00004A
:1008D000000403090409025B00030100A0FA0904F3
:1008E0000000010301010009211101000122400063
:1008F0000705810308000A09040100010300000044
:100900000921110100012236000705820320000A97
:100910000904020002030000000921110100012264
:1009200022000705830320000107050303200001BF
:100930001201100100000008EDFE0C0A44440102FF
:1009400003010631FF0974A1010975150026FF0096
:100950009520750881020976150026FF00952075FF
:10096000089102C005010980A10185031601002636
:1009700003001A81002A8300751095018100C005CB
:100980000C0901A1018504160100269C021A010030
:100990002A9C02751095018100C005010906A1017C
:1009A000050719E029E71500250195087501810261
:1009B000950175088101050819012905950575013D
:1009C00091029501750391010507190029FF150092
:1009D00026FF00950675088100C011241FBECFEFC9
:1009E000DAE0DEBFCDBF04B603FE27C08091E4018C
:1009F0009091E501A091E601B091E7018730904B1D
:100A0000A740B04BD1F41092E4011092E50110928E
:100A1000E6011092E70114BE84B7877F84BF0FB64A
:100A2000F894A8958091600088618093600010928E
:100A300060000FBEE0E0F8E3099511E0A0E0B1E04E
:100A4000E8E8FAE402C005900D92AC32B107D9F79C
:100A500021E0ACE2B1E001C01D92A43EB207E1F793
:100A60000E943B1F0C94F3240C940000FF93EF931F
:100A7000E0912C01F0912D01309709F00995EF914B
:100A8000FF910895FC018591803011F0EFDFFBCFDD
:100A90000895FF27E0E230E247FF0CC0419597FF41
:100AA00009C0EDE26095709580959095611D711D6E
:100AB000811D911D27FF02C0219530E350E2AA2736
:100AC000660F771F881F991FAA1FA41710F0A41B79
:100AD00063955A95A9F7AA3008F0A95FA05DAF9376
:100AE000F395611571058105910541F7ED3211F41A
:100AF000EF93F395F21718F43F93F395FBCF8F9193
:100B0000B5DFFA95E1F70895E991F9918591803083
:100B100021F0853219F0AADFF9CF089520E0E8949A
:100B200055915532C1F3503311F4689455915A33AD
:100B300048F4505390F3220F022E220F220F200D63
:100B4000250FF4CF0EF4219589919991533619F31D
:100B5000533729F1533559F1BC0188279927E89477
:100B60005C3621F48991999168945591543639F401
:100B700046EF7EF077FF0DC08FEF9FEF0AC055372D
:100B80004AE039F0583540E121F0523642E009F0B0
:100B90000895FF93EF937DDFEF91FF91B7CFFF9320
:100BA000EF93FC0181918030B9F360DFFBCFFF93BD
:100BB000EF9368DFF1CFDF93CF93CDB7DEB7259604
:100BC000A3DFCF91DF9108950C94FC050C94FD05F3
:100BD0000C94FE050C940006843021E6920731F057
:100BE0008631924619F088EC90E0089584EF91E008
:100BF000089590E080E008950895089581E00895B3
:100C0000089581E008951F93CF93DF9300D000D023
:100C10000F92CDB7DEB749835A836B83209154017D
:100C200089819A8121111BC06623A9F00E94FD16BB
:100C3000182F682F89819A810E94A91669817A816B
:100C4000812F0F900F900F900F900F90DF91CF9109
:100C50001F910C945F070E94D516182FEFCF0E94AA
:100C6000FD1669817A81EDCFFC014081518162815D
:100C7000738184810C9403060E946B18811102C059
:100C80000E94E5180C94E4050C94E6050C94EA0522
:100C900008950E9448110E9448062FEF84E39CE0CB
:100CA000215080409040E1F700C000000C94161ADB
:100CB0000F931F93CF93DF938C010E943406EC01B6
:100CC000B8010E94E805882309F450C0B801CE019C
:100CD0000E94BE0B882309F449C0C5318CE5D807B2
:100CE000A0F4C230ECE5DE0708F06AC0C115FCE5EF
:100CF000DF07B9F1C130DC4509F43EC0C801DF911E
:100D0000CF911F910F910C940106CC3DECE5DE07CD
:100D100009F448C0C0F4C631DC4581F70E9492173F
:100D2000F8019281992309F4BFC08A7A91E009F40D
:100D300090E090932E018111B5C089E20E946D1759
:100D40000E94DE1713C0CD3DECE5DE0799F1CE3DE4
:100D5000DC45A1F6F8018281882341F00E94E51864
:100D600005C0F801828181110E94490680E0DF916F
:100D7000CF911F910F910895F80182818823B1F3DB
:100D80009091C001892F8E7F90FF81608093C00178
:100D900080FF05C08EEF92E00E944205E7CF8CEE07
:100DA00092E0FACFF8018281882301F380E00E946B
:100DB000E21FDCCFF80182818823C1F282E0F7CF05
:100DC000F8018281882309F499CF0E946B18811160
:100DD00002C00E94E5180E947E1890E09093D60110
:100DE0008093D501FE01E350FC458091D5018160DF
:100DF000E231F10538F4EB50FB4D0C94AB248091BB
:100E0000D50182608093D5018091D5010E9482181E
:100E10000E944811ABCF8091D5018460F3CF8091BF
:100E2000D5018860EFCF8091D5018061EBCF8091B3
:100E3000D5018062E7CF8091D5018064E3CF8091B6
:100E4000D5018068DFCF8091D5018C60DBCF8091A8
:100E5000D5018E7FD7CF8091D5018D7FD3CF809163
:100E6000D5018B7FCFCF8091D501877FCBCF80916C
:100E7000D5018F7EC7CF8091D5018F7DC3CF809163
:100E8000D5018F7BBFCF8091D5018F77BBCF80916C
:100E9000D501837FB7CF9091D501892F97FB87F933
:100EA0008058B0CF85E34ACF80912E01811104C0D4
:100EB00089E20E94741744CF85E3FBCF0895972FF2
:100EC00070E02CE0929F600D711D1124FB0190E3F6
:100ED000899FE00DF11D1124EE0FFF1FE455FF4F18
:100EE000859194910895FC01EE0FFF1FE455FF4F8B
:100EF000859194910895CF93DF930E945F070E949C
:100F00003409EC01811520E5920708F042C08115F3
:100F100030E4930708F014C1883E910528F5803E1F
:100F2000910508F0A0C0883A910588F4853A9105AA
:100F300008F08FC08130910509F495C0009709F43D
:100F400092C0049708F08FC0D0E0C0E08CC08F3B07
:100F5000910508F48CC0805C9109C03CD105A0F3D8
:100F60000E947307EC017FC08115904250F4C115B7
:100F700081E0D80708F077C0C03FD10528F3D065DD
:100F800072C0C11590E3D90708F0D0C0CE019F70A0
:100F9000E7CF811525E5920758F5811534E59307CC
:100FA00008F0FDC0811542E5940750F4C11581E5B4
:100FB000D80708F4C8C0DC2FCC27C16FD06A53C053
:100FC000982F969596959E0123703327C115D3458A
:100FD00008F0D6C0C1E0D0E002C0CC0FDD1F2A95DA
:100FE000E2F720E2929FC0011124C82BD92BC6C082
:100FF000C11589E5D807A8F4C11598E5D90708F007
:10100000D3C0C11526E5D20708F09ECF8C2F0E94D1
:10101000AF09C82FD0E0DC2FCC27CC27DF71D062FE
:1010200022C0C1153AE5D30708F4C3C0CE019056DB
:101030008115904208F088CF8D2F8F710E94AF09E3
:1010400090E0982F882788279F719C012C2BE9011D
:10105000E6CF853A910509F4BCC0863A910509F0BE
:10106000BBC0C2E8D0E4CE01DF91CF910895883AA9
:10107000910509F4B4C0893A910509F4B3C08A3ADC
:10108000910509F4B2C08B3A910509F4B1C08C3ACC
:10109000910509F4B0C08B3B910509F4AFC08C3BBE
:1010A000910509F4AEC08D3A910509F4ADC0803BBD
:1010B000910509F4ACC08E3A910509F4ABC08F3AA2
:1010C000910509F4AAC0813B910509F4A9C0823BAE
:1010D000910509F4A8C0833B910509F4A7C0843B9E
:1010E000910509F4A6C0853B910509F4A5C0863B8E
:1010F000910509F4A4C0873B910509F4A3C0883B7E
:10110000910509F4A2C0893B910509F4A1C08D3B6A
:10111000910509F4A0C08E3B910509F49FC08A3B5C
:10112000910509F49EC0C0E0D4E49DCFCE0199277B
:10113000D3FF03C0EC01D86C96CFEC01D06C93CFF9
:10114000DF70D06A90CFCE01E4E096958795EA955E
:10115000E1F783702C2F26952695237090E2299F26
:1011600090011124382B8C2F8370C1E0D0E002C095
:10117000CC0FDD1F8A95E2F7C22BD32BDC6873CF2F
:10118000C1E0D0E002C0CC0FDD1F2A95E2F730E2CB
:10119000939FC0011124C82BD92BDA6864CFD82FB4
:1011A000CC27C46FD06A5FCFDC2FCC27C06FD06A4A
:1011B0005ACF8C2F8F700E94AF0934E0D695C79517
:1011C0003A95E1F79C2F9F70C82FCF70C06ED92F32
:1011D000B8CFC1E8D0E447CFC3E8D0E444CFC2EEF3
:1011E000D4E441CFC9EED4E43ECFCAEED4E43BCF41
:1011F000C5EBD4E438CFC6EBD4E435CFC3EBD4E4AD
:1012000032CFC4EBD4E42FCFC7EBD4E42CCFCCEC5B
:10121000D4E429CFCDECD4E426CFC3E8D5E423CF62
:10122000CAE8D5E420CFC2E9D5E41DCFC4E9D5E4AE
:101230001ACFC1E2D6E417CFC3E2D6E414CFC4E29A
:10124000D6E411CFC5E2D6E40ECFC6E2D6E40BCF8A
:10125000C7E2D6E408CFCFE6D4E405CFC0E7D4E4B4
:1012600002CFCAE2D6E4FFCE8238910549F1B0F44C
:101270008133910509F462C048F48932910509F47B
:1012800056C08A32910509F460C0089585339105EE
:1012900009F446C08933910599F00895833E91057C
:1012A00031F138F4803E910591F0823E9105B1F024
:1012B0000895863E910521F1873E910551F10895EB
:1012C0002091D5012370D9F080EE90E0089520910F
:1012D000D50120FF14C089E390E008952091D50145
:1012E00022FF0DC024FD09C083EE90E008952091F7
:1012F000D50122FD31C024FF02C090E080E00895B6
:101300002091D50123FFFBCF24FDF7CF87EE90E09E
:1013100008952091D50123FFEECF86EE90E0089549
:101320002091D50125FFEBCF89E290E0089520912F
:10133000D50125FFE4CF85E390E008952091D50104
:1013400026FFDDCF8AE290E008952091D50126FFA7
:10135000D6CF81E390E0089582EE90E008959091D9
:10136000D50192FF06C0282F2871283069F4877FA5
:10137000846093FF06C0282F2871283161F4877E8E
:10138000846194FD877E0895282F2471243089F785
:101390008B7F8860EECF282F2471243191F78B7ECC
:1013A0008861EFCFE82FF0E0EE0FFF1FE15DFE4F09
:1013B000808191810895CF92DF92EF92FF920F93F7
:1013C0001F93CF93DF938FE193E00E9442058FE25A
:1013D000E82E81E0F82ED0E0C0E09AE1C92E93E03B
:1013E000D92E01E113E0DF93CF93DF92CF920E94D9
:1013F000DB0587E193E00E944205F701819191911D
:101400007F010E945E189F938F931F930F930E94FA
:10141000DB058FE093E00E94420521968DB79EB7D1
:1014200008960FB6F8949EBF0FBE8DBFC430D1058D
:10143000D1F6DF91CF911F910F91FF90EF90DF9048
:10144000CF900895CF93DF93A9E1B1E02DE131E092
:1014500061E070E09D91E92FE295EF70F0E041A12D
:101460009F70EB0102C0CC0FDD1F9A95E2F7CE0111
:101470008095842381A32A173B0761F7ADE0B1E093
:1014800049E151E0C1E0D0E08D91E82FE295EF70A5
:10149000F0E061A18F709E0101C0220F8A95EAF7EA
:1014A000922F9095962391A382A1822B82A34A1713
:1014B0005B0751F7109238011092370110923001FA
:1014C00010922F0110923A011092390110923201BC
:1014D0001092310110923C0110923B0110923401A4
:1014E0001092330110923E0110923D01109236018C
:1014F0001092350184E00E94170BDF91CF910C947C
:101500003C065F926F927F928F929F92AF92BF92B2
:10151000CF92DF92EF92FF920F931F93CF93DF93BF
:1015200027E331E009E111E0512CEE24E394F12CA2
:10153000E901899099909E01DE011E921E92F801A8
:1015400081918F01E82FE295EF70F0E091A18F700B
:10155000B70101C0660F8A95EAF7892F862B81A310
:1015600082A1662E6094862182A380EA8A95F1F793
:101570008DE0C82E81E0D82E50E040E0E601799061
:101580006E01872D82958F7090E0EC0188A1AD905F
:10159000BC90119790E0D72DDF7002C0959587958C
:1015A000DA95E2F780FD40C0C701042E02C0880F23
:1015B000991F0A94E2F78A299B2911969C938E938E
:1015C0004F5F5F4F4C305105C9F681A1D62DD8230E
:1015D000D1A382A1682B62A381E04D915C91481553
:1015E000590509F480E0582AE1E02F333E0709F05D
:1015F0009FCF252D44E06FE271E087E391E00E94E8
:10160000180B0E944406852DDF91CF911F910F91F9
:10161000FF90EF90DF90CF90BF90AF909F908F9012
:101620007F906F905F90089590E080E0C4CF089520
:10163000FF920F931F93CF93DF93F82E092F162F4E
:10164000D72FC42F222349F081E0809341010E94CB
:10165000B0199093400180933F018091410188230C
:10166000A1F080913F01909140010E94C819069716
:1016700060F0EF2DF02FA12FBD2F90E080E0D0E0A3
:101680008C179D0744F010924101DF91CF911F917B
:101690000F91FF900895219131912D933D930196E3
:1016A000EFCF0F931F93CF93DF93C62FD42F022F2B
:1016B000FC0182818823C9F0609344010E94B01923
:1016C000909343018093420180E28C0F883008F0B0
:1016D00050C0C77081E001C0880FCA95EAF7DF915A
:1016E000CF911F910F910C94010F1091440116138B
:1016F00035C080914201909143010E94C819883CF5
:10170000910560F5C0E2CD0F1D17B9F080E2810FA1
:10171000883040F4177081E001C0880F1A95EAF70D
:101720000E94080FC83048F481E09D2F977001C0D7
:10173000880F9A95EAF70E94010F802F0E94EE0E03
:10174000C830B8F4D77081E001C0880FDA95EAF7A5
:10175000DF91CF911F910F910C94080F80E28C0FB5
:10176000883038F4C77081E001C0880FCA95EAF765
:10177000EFCFDF91CF911F910F9108959C01CB0185
:10178000203F4CE5340731F190F4283DFCE53F075C
:10179000E9F0293D4CE5340769F1273D3C4579F4F2
:1017A00026E241EE61EE0E94510B80E00895223F57
:1017B000FCE53F07B9F090F0233F3C45B9F0FC0150
:1017C00082818823D1F010924401089527E245EEEA
:1017D00065EEE9CF26E241EE60EEE5CF27E245EE89
:1017E00064EEE1CF26E241EE62EEDDCF27E245EE88
:1017F00066EED9CF28E241E0EBCF81E008959093E7
:101800004A01809349010895E0914901F0914A010C
:10181000309721F00190F081E02D099480E0089547
:10182000EF92FF920F931F93CF93DF938C01E09180
:101830004901F0914A013097C1F10280F381E02D16
:1018400009958091C00182FF30C080FF04C08EE303
:1018500093E00E944205D0E0C0E088E3E82E83E0F8
:10186000F82E8091C00180FF0EC0F801EC0FFD1F23
:1018700080811F928F93FF92EF920E94DB050F9061
:101880000F900F900F902196C830D10551F780919D
:10189000C00180FF0AC086E393E0DF91CF911F91E2
:1018A0000F91FF90EF900C944205DF91CF911F9123
:1018B0000F91FF90EF9008952091470130914801DA
:1018C0002817390771F09093480180934701E09100
:1018D0004901F0914A01309721F00680F781E02D0F
:1018E0000994089520914501309146012817390740
:1018F00071F09093460180934501E0914901F09188
:101900004A01309721F00084F185E02D0994089573
:1019100085B7806885BF85B7806885BF08950895BD
:1019200008950C948F0C08950C94930C0E94880CCD
:101930000E94900C0C94910C81E008950E94A719CC
:101940000E94220A0E943A1A0C94940CCF93C82F3A
:101950008091C00182FF1EC080FF1CC087E593E01C
:101960000E9442058091C00180FF14C01F92CF9356
:1019700082E593E09F938F930E94DB058091C001E5
:101980000F900F900F900F9080FF04C080E593E0C0
:101990000E9442058C2FCF910C9446065F926F9265
:1019A0007F928F929F92AF92BF92CF92DF92EF92EF
:1019B000FF920F931F93CF93DF93CDB7DEB72A9794
:1019C0000FB6F894DEBF0FBECDBF0E94810A0E9401
:1019D0009C0C882309F478C09CE4A92E91E0B92ED0
:1019E00010E000E088248394912C502E802F0E94D8
:1019F000D2097C01F501C190D1905F01C816D906CA
:101A000009F45CC08091C00181FD0E94DB0990E077
:101A100080E0CE24DF243401082E02C0660C771C3F
:101A20000A94E2F7960126213721232B09F441C0BD
:101A30008E835F82E620F72081E0EF2809F480E0C2
:101A400088870E94B0198160782F9A8789874E8194
:101A50005F8168858A850E948B0D000F111FF80138
:101A6000E45BFE4F808191816826792671826082D5
:101A70000E94040C90914B018917B9F10E94040C4B
:101A800080934B012A960FB6F894DEBF0FBECDBFF0
:101A9000DF91CF911F910F91FF90EF90DF90CF904A
:101AA000BF90AF909F908F907F906F905F900C94BD
:101AB000A60C01968C30910509F0ADCF0F5F1F4F3A
:101AC0000430110509F091CF8FEF89838A831B823F
:101AD0000E94B0198160782F9D838C8349815A813F
:101AE0006B818D810E948B0DC3CF2A960FB6F8941F
:101AF000DEBF0FBECDBFDF91CF911F910F91FF9041
:101B0000EF90DF90CF90BF90AF909F908F907F909D
:101B10006F905F900895CF93DF93CDB7DEB72B978B
:101B20000FB6F894DEBF0FBECDBF4F8358876987CD
:101B30007A878B871E821D8285E0FE013796DE0143
:101B4000119601900D928A95E1F749815A816B8136
:101B50007C818D819E812B960FB6F894DEBF0FBEDF
:101B6000CDBFDF91CF910C948914FC0180819181CC
:101B70000C943F17CF93C82F882309F4DEC0823816
:101B8000C1F40E94040C81FDD8C089E30E946D1746
:101B90000E94DE172FEF81EE94E0215080409040AC
:101BA000E1F700C0000089E30E947417CF910C9404
:101BB000DE178338A1F40E94040C80FDBEC083E5CB
:101BC0000E946D170E94DE172FEF81EE94E02150E6
:101BD00080409040E1F700C0000083E5E5CF843805
:101BE000A1F40E94040C82FDA8C087E40E946D1736
:101BF0000E94DE172FEF81EE94E02150804090404C
:101C0000E1F700C0000087E4CFCF8CEF8C0F813A62
:101C100048F48C2F0E94BA1C81118FC08C2F0E9417
:101C20006D17C4CF80E28C0F883048F4C77081E014
:101C300001C0880FCA95EAF70E949517B7CF8BE5C8
:101C40008C0F833068F481E890E0C53A31F083E886
:101C500090E0C63A11F482E890E0CF910C945C0CCD
:101C600088E58C0F873108F068C082EE90E0C83AB2
:101C700009F460C089EE90E0C93A09F45BC08AEECD
:101C800090E0CA3A09F456C085EB90E0CB3A09F4EB
:101C900051C086EB90E0CC3A09F44CC083EB90E065
:101CA000CB3B09F447C084EB90E0CC3B09F442C045
:101CB00087EB90E0CD3AF1F18CEC90E0C03BD1F1B4
:101CC0008DEC90E0CE3AB1F183E891E0CF3A91F11A
:101CD0008AE891E0C13B71F182E991E0C23B51F1A8
:101CE00084E991E0C33B31F181E292E0C43B11F120
:101CF00083E292E0C53BF1F084E292E0C63BD1F092
:101D000085E292E0C73BB1F086E292E0C83B91F0F9
:101D100087E292E0C93B71F08FE690E0CD3B51F055
:101D200080E790E0CE3B31F090E080E0CA3B11F4D8
:101D30008AE292E0CF910C94720CCF91089588239F
:101D400009F44BC0823871F40E94040C81FF45C035
:101D500089E30E946D170E94DE1789E30E947417C1
:101D60000C94DE17833859F40E94040C80FF35C0B0
:101D700083E50E946D170E94DE1783E5EFCF84385C
:101D800059F40E94040C82FF28C087E40E946D175A
:101D90000E94DE1787E4E2CF9CEF980F913AF0F2B1
:101DA00090E2980F983050F4877091E001C0990F3D
:101DB0008A95EAF7892F0E949B17D2CF9BE5980F4F
:101DC000933020F490E080E00C945C0C885A8731CA
:101DD00020F490E080E00C94720C0895CF93C82F0B
:101DE0000E94BA0DC93349F42FEF83EC99E02150DA
:101DF00080409040E1F700C000008C2FCF910C9400
:101E00009F0E882321F00E9495170C94DE170895E9
:101E1000882321F00E949B170C94DE170895BF922F
:101E2000CF92DF92EF92FF920F931F93CF93DF93A6
:101E30007C01D62FC72FFC01058102950F701281FE
:101E400011110E94B2170E948B17C82E882371F0BF
:101E50001123B1F080E28D0F883090F082E00E9473
:101E600029180E948B1791E0C82EC926DC2ED29427
:101E70009FE0D922ED2DF0E0E95FFA4D0C94AB2400
:101E8000C12CF4CF0C2F0F70C07F11F00295007F92
:101E90001123A9F0002359F080E28D0F883010F053
:101EA000D11109C0802F0E9495170E94DE178D2F37
:101EB0000E94BA0D14C0802F0E94A517F6CF8D2F57
:101EC0000E949F0E002359F080E28D0F883010F0A1
:101ED000D11130C0802F0E949B170E94DE17E8E0CE
:101EE000DE1639F0DE1648F086E08D0D8F708230F8
:101EF00020F40E94040C0E944606CC2009F482C102
:101F00000E94871780FD7EC1F70112820E9481170F
:101F10000E940D16C7010E940C110E948117DF91CB
:101F2000CF911F910F91FF90EF90DF90CF90BF90D6
:101F30000C942E16802F0E94AB17CFCFFC2FFF7072
:101F4000BF2EC07FC03219F0B29480EFB822DD23DB
:101F500039F0D13019F1112361F1002321F1A7CF1C
:101F6000112381F0011106C00E94C5178B290E9420
:101F7000010FB5CF0130C1F70E94C5178B290E9410
:101F8000CB17ADCF011106C00E94D4178B2D0E9434
:101F9000080FA5CF013009F4A2CFF6CF112329F005
:101FA000063008F09CCF8B2DE2CF053008F097CF9C
:101FB000EDCF002359F38D2F0E949F0E90CF8C2FD1
:101FC00086958695837069F0813009F088CF8D2FD2
:101FD0009C2F9370111102C090E080E00E94720C5F
:101FE0007ECF8D2F9C2F9370111102C090E080E066
:101FF0000E945C0C74CF8C2F837009F041C01111CA
:102000006ECF4D2F429546954770440F440F0D2FCC
:102010000F7010E030E020E0042E04C0000F111F0C
:10202000221F331F0A94D2F760E070E0CB01D4FF87
:102030000FC06FE070E080E090E004C0660F771F93
:10204000881F991F4A95D2F7609570958095909555
:10205000C695C695C370602B712B822B932BC23013
:1020600049F058F4C13019F00E94BF1538CF0E94D2
:10207000AD1535CF0E94D11532CF0E94AB152FCFB1
:102080008695112311F08C2F8170882309F427CFB6
:102090004D2F429546954770440F440F0D2F0F70FA
:1020A00010E030E020E0042E04C0000F111F221FBA
:1020B000331F0A94D2F760E070E0CB01D4FF0FC069
:1020C0006FE070E080E090E004C0660F771F881F2B
:1020D000991F4A95D2F76095709580959095C69511
:1020E000C695C370602B712B822B932BC23049F0A5
:1020F00058F4C13019F00E948416F1CE0E94721675
:10210000EECE0E949616EBCE0E94E715E8CEE0E2F6
:10211000ED0FE53108F04DC0F0E0E95EFA4D0C94AA
:10212000AB24DF708C2F8F71112321F00E940D16CC
:102130008D2F1DCF0E942E168D2F29CF112341F0F8
:10214000053008F0CCCE8C2F8F710E945116C7CE6F
:10215000063008F0C4CEF7CF8C2F8F71112339F0E1
:102160000E940D16BCCE8C2F8F711123C9F30E94D3
:102170002E16B5CE112329F08C2F8F710E94F815E1
:10218000AECE0E94F315ABCE112349F0CF718C2F48
:102190000E940D1663E08C2F0E941418A0CE81E0DF
:1021A0000E942918023008F49ACE82E00E94291871
:1021B00096CE112329F001117ACE8C2F8F71D0CFBA
:1021C000002369F0D93309F0F6CE2FEF83EC99E0C4
:1021D000215080409040E1F700C00000ECCE8C2FF1
:1021E0008F71C5CF4C2F4F706D2FC7010E94F9051D
:1021F0000E94231574CE4C2F4F706D2FC7010E9483
:102200005E076DCEDF91CF911F910F91FF90EF9000
:10221000DF90CF90BF9008950F931F93CF93DF93DC
:10222000EC018B819C81892B29F0888199818923FC
:102230008F3F29F4DF91CF911F910F910895CE0127
:102240000E9458068823B1F3688179818A810E94AF
:1022500049178C010E94A8160E94AA15B801CE0148
:10226000DF91CF911F910F910C940F0F0E94B21725
:102270000E94C2170E94DE1790E080E00E945C0C72
:1022800090E080E00C94720C0E947B170C94361145
:102290000E94A2170C944411E92FE295EF70E250CE
:1022A000EE3070F4F0E0E45DFA4D0C94AB24803F26
:1022B00019F020F4803E20F481E00895843FE1F39A
:1022C00080E00895803EC0F3813FD1F7F5CF93FBC6
:1022D000882780F908950E943F170C944C11CF93E2
:1022E000DF9300D000D00F92CDB7DEB70F900F90E4
:1022F0000F900F900F90DF91CF910895CF93DF93C0
:1023000000D000D000D0CDB7DEB726960FB6F89437
:10231000DEBF0FBECDBFDF91CF9108951F93CF9346
:10232000DF93C091550116E0809156018C1304C0D3
:10233000DF91CF911F910895D0E01C9FF0011D9F68
:10234000F00D1124E95AFE4F408151816281738161
:10235000848195810E947E112196C770E5CF4091BE
:102360008701509188016091890170918A01809163
:102370008B0190918C010C947E11209155019091CC
:10238000560156E0291302C080E0089530E0529FC4
:10239000F001539FF00D1124E95AFE4F718176131D
:1023A00006C07081781303C07281741304C02F5F5C
:1023B0003F4F2770E7CF81E00895FF920F931F935F
:1023C000CF93DF9380918C01807F61F480918901AC
:1023D000882341F0C091550186E0F82E8091560186
:1023E0008C1306C0DF91CF911F910F91FF9008953C
:1023F00080918A0190918B01D0E0009741F020916B
:10240000870130918801422F43234F3F41F42196A9
:10241000C770E4CF80959095080F191F17C0FC9ED8
:10242000F001FD9EF00D1124E95AFE4F4181431346
:10243000EECF30813213EBCF22812111E8CF03811F
:1024400014810817190730F3081B190B40918701F5
:10245000509188016091890170918A0180918B016E
:102460000E9403060E94EC050817190780F6809168
:102470008C018F70806180938C0186E08C9FF001CD
:102480008D9FF00D1124E45AFE4F80818F70806182
:10249000808387E891E00E940C11DF91CF911F911A
:1024A0000F91FF900C948E118F929F92AF92BF92DA
:1024B000CF92DF92EF92FF920F931F93CF93DF9310
:1024C000CDB7DEB761970FB6F894DEBF0FBECDBFB4
:1024D0008C0185E0F801DE011D9601900D928A9530
:1024E000E1F7D801AC901196BC90119712968C90A0
:1024F00080918A0190918B01009741F02091870192
:102500003091880123232F3F09F0BBC1811031C1D5
:10251000C8010E940C11D9C07601E81AF90AC81640
:10252000D90628F4809590957C01EC0CFD1C409117
:102530008701509188016091890170918A01809191
:102540008B010E9403060E94EC0520918C01E81685
:10255000F90608F0BDC040918A0150918B01822F8D
:10256000807F09F07DC0982C452B49F08091870130
:1025700090918801382F39233F3F09F019C14091CC
:102580008701509188016091890170918A01809141
:102590008B010E9403060E94EC05843F914000F1EC
:1025A000C114D10429F08B2D8A218F3F09F0FDC081
:1025B00080E080FF15C0482D6B2D8A2D0E94BD1133
:1025C000882371F087E891E00E940C1186E0E7E82B
:1025D000F1E0DF011D928A95E9F70E94AF113EC03C
:1025E000CD2829F08B2D8A218F3F09F0DBC080E0B8
:1025F000B82FB170EB2E80FF29C0482D6B2D8A2D8E
:102600000E94BD11F82E811121C0AD86BE868D8538
:102610009E850E943F17292F22952F70223050F05F
:10262000243078F49F7051F0F8019581907F31F457
:102630009F2CD2C09F7011F08823D1F3805E883028
:10264000B8F3C8010E940C11FE2CF2CF882009F4C7
:10265000C3C080918C01816080938C01912CBCC09F
:10266000452B49F08091870190918801382F3923BB
:102670003F3F09F0C5C0AD86BE868D859E850E9410
:102680006B11882309F444CF882009F441CF80914D
:102690008C01803270F02091870130918801388759
:1026A0002F831986DB86CA868C87CE0107960E9407
:1026B0000C1186E0F801A7E8B1E001900D928A952F
:1026C000E1F70E94DD110E94AF119924939484C018
:1026D000822F807F49F47C2DD98AC88AA501682D74
:1026E00089890E946F116ECF80918A0190918B0130
:1026F000892B49F08091870190918801382F3923E7
:102700003F3F09F094C0AD86BE868D859E850E94B0
:102710006B11882309F4FCCE882009F4F9CE80914E
:102720008C01803230F220918701309188013A8308
:1027300029831B82DD82CC828E83CE010196B7CFA6
:1027400086E0F801A7E8B1E001900D928A95E1F7E3
:1027500043C07C2DD98AC88AA501682D89890E9429
:102760006F1186E0E7E8F1E0DF011D928A95E9F755
:102770005BC0AD86BE868D859E850E946B11982EAE
:10278000882309F4C5CE86E0F801A7E8B1E00190FE
:102790000D928A95E1F787E891E00E94B50D0E94BD
:1027A000DD1142C081E0882523CF81E0882501CF5B
:1027B0009B11E5CE8A11E3CE9110E1CE2F702061FE
:1027C00020938C010E94AF1187E891E00E940C11C8
:1027D00080918C01F8018583892D61960FB6F8945C
:1027E000DEBF0FBECDBFDF91CF911F910F91FF9044
:1027F000EF90DF90CF90BF90AF909F908F90089513
:102800009B1139CF8A1137CF811035CFD80115965A
:102810002C93C8010E940C1186E0F801A7E8B1E0F2
:1028200001900D928A95E1F70E94AF11D5CF9B11CF
:102830006ACF8A1168CF811066CFF8012583C8015D
:102840000E940C11E7E8F1E086E0DF011D928A9515
:10285000E9F7C2CF9B114CC08A114AC080918C010C
:1028600080FD6ECF982F907F09F46ACFF8018583A1
:10287000903F79F2982F907F905F8F70892B85839E
:10288000C8CFF801C380D48090908901911044CEC4
:102890007601E81AF90AC816D90628F480959095A9
:1028A0007C01EC0CFD1C40918701509188016091E6
:1028B000890170918A0180918B010E9403060E9418
:1028C000EC05E816F90608F044CF982C882009F4A6
:1028D0001FCE80918A0190918B01892B49F08091C4
:1028E000870190918801282F29232F3F09F0B2CF2B
:1028F000AD86BE868D859E850E946B118111D9CED5
:1029000080918C01816080938C01C8010E940C1120
:1029100063CF1F93CF93DF93CDB7DEB72C970FB65E
:10292000F894DEBF0FBECDBF4F83588769877A8783
:102930008B879C87CE0107960E945412882369F0EA
:102940008A859B85892B39F04F815885842F852373
:102950008F3F09F071C016E05FC086E0FE01379638
:10296000DE01119601900D928A95E1F78A859B858B
:10297000892B89F388859F8189238F3F61F320917B
:10298000560130E0C90101968770992740915501A1
:102990004817190671F40E944811109256011092BE
:1029A000550186E0E7E8F1E0DF011D928A95E9F73D
:1029B000D2CF96E0929FD001939FB00D1124A95AD7
:1029C000BE4FFE01319601900D929A95E1F78093EA
:1029D00056010E948E11BFCF819FC0011124895AD8
:1029E0009E4F0E9454128823E9F0E09155011E9FEA
:1029F000F0011124E95AFE4F4081518162817381B7
:102A0000848195810E947E118091550190E001960C
:102A100087709927809355018091550190915601B7
:102A20008913DACF2C960FB6F894DEBF0FBECDBF58
:102A3000DF91CF911F91089569857A858B859C855B
:102A40000E947E1188CFEF92FF920F931F93CF9336
:102A5000DF938C01892B81F0F12CEE24E394E801C3
:102A60002196F8018491843770F4843008F05FC0B7
:102A70008130B1F08230A1F1DF91CF911F910F91A0
:102A8000FF90EF900895853709F44CC008F43DC0DD
:102A90009CE7980F903780F78F770E949F0E49C070
:102AA0000E5F1F4FFE01849190E2980F983060F402
:102AB0008770FE2D01C0FF0F8A95EAF78F2F0E94C5
:102AC000B5170E94DE1702C00E94BA0D8F2D8150EB
:102AD00030F2EFE9FFE03197F1F700C00000F7CFE7
:102AE0000E5F1F4FFE01849190E2980F983050F4D2
:102AF0008770FE2D01C0FF0F8A95EAF78F2F0E9485
:102B0000BB17DFCF0E949F0EE1CF0E5F1F4FFE016C
:102B1000C491C150D8F28FE99FE00197F1F700C04E
:102B20000000F7CF0E5F1F4FFE01F490CFCF0E9441
:102B3000BA0D8E01CBCF08950C949B150E949C1565
:102B40006093AF017093B0018093B1019093B20193
:102B50000C94361108950C949E150F931F930091B9
:102B6000AF011091B0012091B1013091B201602B01
:102B7000712B822B932B1F910F910C949E150F9309
:102B80001F930091AF011091B0012091B1013091DC
:102B9000B20160237123822393231F910F910C9420
:102BA0009E150F931F930091AF011091B0012091DA
:102BB000B1013091B20160277127822793271F91BD
:102BC0000F910C949E150C949B150C94E3150E9488
:102BD000E5156093AB017093AC018093AD019093C8
:102BE000AE010C94361160E070E0CB010C94E71557
:102BF0000F931F9341E050E060E070E08A019B0179
:102C000004C0000F111F221F331F8A95D2F7C9017C
:102C1000B8011F910F910C94E7150F931F9341E09A
:102C200050E060E070E004C0440F551F661F771F3E
:102C30008A95D2F78091AB019091AC01A091AD0142
:102C4000B091AE018A019B01082B192B2A2B3B2B3B
:102C5000C901B8011F910F910C94E7150F931F93B1
:102C600041E050E060E070E004C0440F551F661F73
:102C7000771F8A95D2F7CB01BA0160957095809540
:102C800090950091AB011091AC012091AD01309174
:102C9000AE0160237123822393231F910F910C9423
:102CA000E7150F931F9341E050E060E070E004C02F
:102CB000440F551F661F771F8A95D2F78091AB018D
:102CC0009091AC01A091AD01B091AE018A019B0140
:102CD000082719272A273B27C901B8011F910F91FF
:102CE0000C94E7150F931F930091AB011091AC0169
:102CF0002091AD013091AE01602B712B822B932B73
:102D00001F910F910C94E7150F931F930091AB0146
:102D10001091AC012091AD013091AE01602371237F
:102D2000822393231F910F910C94E7150F931F9308
:102D30000091AB011091AC012091AD013091AE0139
:102D400060277127822793271F910F910C94E71515
:102D500008952CE0929F800D1124982F977041E0E8
:102D600001C0440F9A95EAF786958695869595E079
:102D7000899FF0011124E357FE4F90E080E070E05E
:102D80005191DF0111979B01082E02C036952795BE
:102D90000A94E2F7217021952527242325272C93D7
:102DA00001968530910561F708952CE0929F800D82
:102DB0001124982F977086958695869525E0829F99
:102DC000F0011124E357FE4F50E040E080E02191F4
:102DD00030E0092E02C0369527950A94E2F721705B
:102DE0003327042E01C0220F0A94EAF7822B4F5F8B
:102DF0005F4F4530510559F70895BF92CF92DF924A
:102E0000EF92FF920F931F93CF93DF938C01C090AB
:102E1000AB01D090AC01E090AD01F090AE0180919B
:102E2000AF019091B001A091B101B091B201C82A57
:102E3000D92AEA2AFB2ACFE1D0E0BC2ED701C6016D
:102E40000C2E04C0B695A795979587950A94D2F74E
:102E500080FD0EC0219788F7B12C8B2DDF91CF918B
:102E60001F910F91FF90EF90DF90CF90BF9008954A
:102E7000B8018C2F0E947B07019761F3EECFCF93AF
:102E8000DF93EC010E94FD16BE01DF91CF910C94FF
:102E90007B071F93CF93DF93EB019091540199230C
:102EA00031F0CB01DF91CF911F910C943F17882314
:102EB00079F0CB010E94FD16182F682FCE010E94D9
:102EC000A916BE01812FDF91CF911F910C947B0732
:102ED000CB010E94D516182FF4CF682F80910001E6
:102EE000909101010C942019682F8091000190911C
:102EF00001010C94221980910001909101010C9420
:102F000024198091B30185958595859508958091C3
:102F1000B301877008959091B301977081E009F42F
:102F200080E008958091BF0108959091BF01892BA1
:102F30008093BF01089580959091BF01982390934D
:102F4000BF0108951092BF0108959091BE01892B91
:102F50008093BE01089580959091BE01982390932F
:102F6000BE0108951092BE0108959091BD01892B74
:102F70008093BD01089580959091BD019823909311
:102F8000BD0108951092BD0108958091B401089586
:102F900008950C94C8179091B401981721F080936C
:102FA000B4010C94C91708958091B401882329F0C5
:102FB0001092B40180E00C94C9170895E0910001CB
:102FC000F09101018091BF018083E0910001F091B7
:102FD000010180819091BE01892B8083E0910001E5
:102FE000F091010180819091BD01892B80839091A6
:102FF000B401992381F0E0910001F09101018081F9
:10300000892B808380910001909101010E94E71833
:1030100081110E94D41780910001909101010C94BC
:10302000100C08950C94111898E0899F90011124B8
:10303000622B6093B3010E940D168091B3018595B8
:10304000859585950C9412181092B30180E00C942C
:1030500012189091B301809589238093B301282F92
:10306000277071F4282F082E000C330B92171306CB
:1030700039F08595859585950E942E160C94241817
:10308000089590932D0180932C010895829590E0EE
:103090009C01220F331F220F331F2C7C959587959F
:1030A000959587958373282B30E0C901880F991F68
:1030B0008A7A359527952575822B0895CF93DF93CE
:1030C000D92F0E944618C82F8D2F0E9446189C2F7A
:1030D000DF91CF91089590E080E00E94B92421E033
:1030E0008D3E9E4F09F020E0822F089582E090E00F
:1030F0000C94B12483E090E00C94B12484E090E03F
:103100000C94B124682F84E090E00C94BF24AB01B0
:10311000BC018FE090E00C94D124AB01BC0183E1B1
:1031200090E00C94D12460E070E0CB010C948D18F9
:1031300060E070E0CB010E9487180C9493186DEE4C
:103140007EEF90E080E00E94DD2460E082E090E08D
:103150000E94BF2460E083E090E00E94BF241092B0
:10316000AF011092B0011092B1011092B20160E073
:1031700084E090E00E94BF2460E085E090E00E943F
:10318000BF2460E086E090E00E94BF246FEF87E0FC
:1031900090E00E94BF2440E050E0BA0188E090E057
:1031A0000E94D12460E08DE090E00E94BF2440E0C6
:1031B00050E0BA0188E190E00E94D12460E087E10C
:1031C00090E00E94BF240C9498180C949F189C01C6
:1031D0002E5F3F4FAC01485F5F4F80E024173507FB
:1031E00009F40895F90191919F019923B9F38F5F33
:1031F000F5CF9C01FC0132969FEF80E0419146178C
:1032000051F09F3F19F4411101C0982F8F5F863014
:10321000A9F79F3F09F40895290F311D97FD3A95AD
:10322000F90162830895FC013296089621912613D4
:1032300003C0DF0111971C92E817F907B9F7089549
:103240000C94F9180C941319029626E0FC011192C3
:103250002A95E9F70895089508950C942C190E9471
:103260002D198091DB01843049F11092C10188E170
:1032700090E020E40FB6F894A895809360000FBE0C
:103280002093600080E00E9446060E942D1983B7BB
:10329000817F846083BF83B7816083BF7894889582
:1032A00083B78E7F83BF0FB6F894A8958091600096
:1032B000886180936000109260000FBE08950895A9
:1032C000CF930E942B190E94810A0E945F19C0E0CF
:1032D0008C2F0E94D209892B31F4CF5FC430C1F703
:1032E00080E0CF91089581E0FCCF08950C9475198A
:1032F0000E9448110E94040C0E9446060C94761904
:103300001F921FB61F9211248F939F93AF93BF9369
:103310008091C101811113C08091D1019091D2019E
:10332000A091D301B091D4014196A11DB11D80930C
:10333000D1019093D201A093D301B093D401BF9156
:10334000AF919F918F911F901FBE1F90189582E0A3
:1033500084BD93E095BD9AEF97BD80936E0008956C
:103360002FB7F8948091D1019091D201A091D3010F
:10337000B091D4012FBF08952FB7F8946091D10177
:103380007091D2018091D3019091D4012FBF089503
:10339000CF92DF92EF92FF920F931F932FB7F89483
:1033A0004091D1015091D2016091D3017091D4012B
:1033B0002FBF6A017B01EE24FF248C0130E020E066
:1033C000C016D106E206F30650F0481B590BCA019D
:1033D0001F910F91FF90EF90DF90CF900895415093
:1033E0005109F3CF78941F921FB61F9211248F9327
:1033F0009F93AF93BF938091D1019091D201A091FF
:10340000D301B091D4010196A11DB11D8093D101CA
:103410009093D201A093D301B093D401BF91AF9107
:103420009F918F911F901FBE1F90189581E08093F0
:10343000E00080E28093D8001092C9008FE19EE402
:103440000197F1F700C0000087E090EBDC0180936A
:10345000E4019093E501A093E601B093E70188E1D0
:103460009CE00FB6F894A895809360000FBE9093EF
:103470006000FFCF0E946B18811102C00E94E51806
:103480000E9476188093C0010E947E1890E090936D
:10349000D6018093D5010E947A18682F70E090E0E1
:1034A00080E00C94AB15CF93C82F1F928F9380E7C9
:1034B00093E09F938F930E94DB0561E070E080E0D2
:1034C00090E004C0660F771F881F991FCA95D2F736
:1034D0000E94AB150F900F900F900F90CF910C940E
:1034E0004811CF938B3109F4E0C108F078C18B30DB
:1034F00009F49FC108F042C1863009F4ADC148F417
:10350000853009F47AC182ED97E00E94420580E09F
:10351000B3C1873009F4B2C18830A9F781E798E0D8
:103520000E94420582EC97E00E9442050E947A18B0
:103530001F928F938FEB97E09F938F930E94DB05F1
:103540008DEB97E00E9442050E947618C82F8AEA08
:1035500097E00E9442051F92CF9385EA97E09F93E0
:103560008F930E94DB0583EA97E00E94420589E978
:1035700097E00E9442058C2F81701F928F9386E9FD
:1035800097E09F938F930E94DB0584E997E00E9468
:1035900042058AE897E00E944205C1FB882780F92E
:1035A0001F928F9387E897E09F938F930E94DB058C
:1035B00085E897E00E94420589E797E00E9442056E
:1035C000C2FB882780F91F928F9386E797E09F932D
:1035D0008F930E94DB0584E797E00E9442058BE60B
:1035E00097E00E944205C3FBCC27C0F91F92CF93FE
:1035F00088E697E09F938F930E94DB0586E697E02D
:103600000E9442050E947E18C82F82E597E00E9422
:1036100042051F92CF938DE497E09F938F930E9472
:10362000DB058BE497E00E94420582E397E00E946D
:1036300042058C2F81701F928F938FE297E09F93AA
:103640008F930E94DB058DB79EB780960FB6F894D6
:103650009EBF0FBE8DBF8DE297E00E94420586E1BE
:1036600097E00E944205C1FB882780F91F928F9343
:1036700083E197E09F938F930E94DB0581E197E0C0
:103680000E9442058FEF96E00E944205C2FB882708
:1036900080F91F928F938CEF96E09F938F930E94F7
:1036A000DB058AEF96E00E94420588EE96E00E94D4
:1036B0004205C3FB882780F91F928F9385EE96E021
:1036C0009F938F930E94DB0583EE96E00E94420554
:1036D00089ED96E00E944205C4FB882780F91F927D
:1036E0008F9386ED96E09F938F930E94DB0584ED88
:1036F00096E00E94420582EC96E00E944205C5FBDE
:10370000882780F91F928F938FEB96E09F938F937A
:103710000E94DB058DEB96E00E94420581EA96E06F
:103720000E944205C6FB882780F91F928F938EE97D
:1037300096E09F938F930E94DB058CE996E00E94B0
:10374000420584E996E00E944205C7FBCC27C0F9F8
:103750001F92CF9381E996E09F938F930E94DB05A0
:103760008FE896E00E9442058DB79EB74C960FB643
:10377000F8949EBF0FBE8DBF81E07EC0803109F4FA
:10378000ACC080F48E3009F0BECE9091C001892F7C
:103790008B7F92FF84608093C00182FF9BC08DEF7E
:1037A00097E08FC0863109F4A8C0893109F0ABCE0B
:1037B00082EC94E00E94420588EA94E00E9442056F
:1037C00080E794E00E94420586E394E00E9442056F
:1037D00089E094E00E9442058EED93E02CC08A328D
:1037E000A1F1E8F4873269F128F48E3108F48BCE28
:1037F0008D5128C0893209F086CE0E94481180E49C
:1038000098E00E9442059FEF23ED80E39150204015
:103810008040E1F700C000000E94161AADCF83344B
:1038200068F48A3308F0A0C0853359F0883309F072
:103830006ACE8CEE94E00E9442059ECF833409F05C
:1038400062CE80E00E94531A97CF80E698E00E94F3
:1038500042050E94E51890CF8091C001807F80933F
:10386000C00181ED94E00E9442058CE598E00E9441
:10387000420581E08093C201CF9108959091C001EB
:10388000892F8E7F90FF81608093C00180FF03C0ED
:1038900084E398E0D0CF87E298E00E9442058091CF
:1038A000C001817F8093C00167CF9091C001892FB3
:1038B0008D7F91FF82608093C00181FF08C08AE103
:1038C00098E00E9442058091C0018160EBCF8CE0BE
:1038D00098E0B1CF8DEE97E0AECF9091C001892FE7
:1038E000877F93FF88608093C00183FF03C081EED0
:1038F00097E0E7CF84ED97E09ECF80ED93E00E94C4
:1039000042050E94040C1F928F9386EB93E09F93D5
:103910008F930E94DB0580910C011F928F938FE99A
:1039200093E09F938F930E94DB058091CF011F92BC
:103930008F938CE893E09F938F930E94DB050E9406
:10394000BC199F938F937F936F9385E793E09F9329
:103950008F930E94DB058DB79EB742960FB6F89401
:103960009EBF0FBE8DBF08CF89536CCF80E00895F6
:103970000C94B61CCF93C82F8091C201882331F0DC
:103980008130B1F01092C20180E010C0E0910001DE
:10399000F091010180818232B9F78C2F0E94B61C10
:1039A00081111CC08C2F0E94711A8170CF910895D3
:1039B000E0910001F09101018081823271F38C2F3E
:1039C0000E94B81C811119C0C431C9F050F4CB3029
:1039D00061F08AE693E00E94420513C081E090E026
:1039E000E4CFC93261F0C833A1F781ED94E00E94C1
:1039F00042058CE693E00E94420581E0D6CF10920A
:103A0000C20180E0D2CF8091CE01089508959FB782
:103A1000F8941092C5019FBF9091DB01943009F09A
:103A200048C02091E9002F703091EC00932F9170E5
:103A300030FD90E8922B23E02093E9002091EB00E9
:103A400020FF34C02091EE0027FF30C02091C30139
:103A5000222321F02091E80025FF28C01092C30105
:103A600026E03091E80035FF14C08093F10080918A
:103A7000E80085FD27C08091E80080FFFCCF8091A1
:103A8000E8008E778093E8009F709093E90080E0D3
:103A900008953091DB01343049F43091EB0035FD6D
:103AA00005C0215041F481E08093C3019F70909341
:103AB000E9008FEF0895EFE9FFE03197F1F700C0DB
:103AC0000000CFCF8FB7F89421E02093C5018FBFBE
:103AD000DBCF0F931F93CF93DF9300D00F92CDB71F
:103AE000DEB78C010E94F21F823011F0843021F584
:103AF00084E089831B830A8382E08093E9008FEF4F
:103B00009091E800815095FD06C095ED9A95F1F7EA
:103B100000008111F5CF8091E80085FF0DC050E0D5
:103B200040E063E070E0CE0101960E940F2080919A
:103B3000E8008E778093E8000F900F900F90DF9150
:103B4000CF911F910F910895CF93DF9300D00F92E3
:103B5000CDB7DEB72091DB01243031F523E0298396
:103B6000805891099B838A8382E08093E9008FEFDC
:103B70009091E800815095FD06C095ED9A95F1F77A
:103B800000008111F5CF8091E80085FF0DC050E065
:103B900040E063E070E0CE0101960E940F2080912A
:103BA000E8008E778093E8000F900F900F90DF91E0
:103BB000CF910895CF93DF93EC010E94F21F8230E2
:103BC00011F0843039F581E08093E9008FEF909116
:103BD000E800815095FD06C095ED9A95F1F700003B
:103BE0008111F5CF8091E80085FF14C050E040E0DE
:103BF00068E070E0CE010E940F208091E8008E778F
:103C00008093E80088E0FE01A6ECB1E001900D92FF
:103C10008A95E1F7DF91CF91089581EA98E00E94BB
:103C200042058091DA01811109C00E949F210E9402
:103C3000FC218091E20084608093E20008958DE988
:103C400098E00E9442051092DA01089589E998E00F
:103C50000C94420585E998E00C94420581E998E0CE
:103C60000E9442050C9478192091C4012F5F822F85
:103C700062E30E949F24992319F02093C4010895C0
:103C80001092C4018091C5018823F1F08091DB017D
:103C90008430C1F49091E9009F702091EC00822F54
:103CA000817020FD80E8892B93E09093E90090914A
:103CB000EB0090FF04C09091EE0097FD08C08F705C
:103CC0008093E9001092C50108951092F10090913F
:103CD000E80095FDFACF9091E80090FFF0CF909129
:103CE000E8009E779093E800EACF42E061EC81E043
:103CF0000E941B2142E261EC82E00E941B2142E211
:103D000061EC83E00C941B218091DD01833009F488
:103D10005FC030F48130C1F1823009F49BC0089556
:103D20008A3009F487C08B3009F46DC0893009F0FE
:103D30004EC08091DC01813209F049C08091E001E0
:103D40009091E101029708F042C08091E800877FDE
:103D50008093E8008091E80082FF35C09091F300E5
:103D60008091F200029729F48091F1008B7F8130DD
:103D700021F48091F1008093CE018091E8008B774F
:103D80008093E8000C944F218091DC01813AF9F492
:103D90008091E800877F8093E8008091E001909116
:103DA000E101892B61F468E086EC91E070E00E940B
:103DB0005E208091E8008B778093E800089560E0B2
:103DC00090E080E0F3CF8091DB018111C3CF0895B3
:103DD0008091DC01813AD9F78091E0019091E10175
:103DE000892BA9F78091E800877F8093E800809174
:103DF000E80080FFFCCF80910C018093F10080915E
:103E0000E8008E77BDCF8091DC01813201F780918F
:103E1000E0019091E101892BD1F68091E800877F44
:103E20008093E8000E944F218091DE0180930C0175
:103E30000C9448118091DC01813249F68091E800B0
:103E4000877F8093E8000E944F218091DF0180935B
:103E5000CF0108958091DC01813A09F0B8CF8091BB
:103E6000E800877F8093E8008091E80080FFFCCF26
:103E70008091CF01C2CF84B7877F84BF0FB6F894FB
:103E8000A895809160008861809360001092600026
:103E90000FBE80E880936100109261000E94960C32
:103EA0000E949F210E94FC218091E2008460809307
:103EB000E20087E09DE10E94411878940E948424EA
:103EC0000E949E0C82E091E00E94FF0B80E898E047
:103ED0000E9442058091DB01853019F00E94CE0CD2
:103EE000F9CF8CE798E00E9442050E942F1980913B
:103EF000D901882379F30E946019882359F30E941D
:103F0000F91FE8CF0C94841F292F33272330310564
:103F100021F168F42130310509F449C0223031051E
:103F200009F44AC090E080E030E020E029C021326E
:103F3000310581F122323105A9F76330710590F71F
:103F4000FB01EE0FFF1FE05EFE4F20813181635EBB
:103F50007E4FFB01808190E013C09927813091054D
:103F600099F0009741F08230910589F00397D1F6DE
:103F7000E5EAF8E002C0E1EDF8E0849190E09F010D
:103F8000FA01318320830895EDEBF8E0F6CFEBEAF8
:103F9000F8E0F3CF6330710528F6660F771FFB0159
:103FA000EA5DFE4F2081318189E090E0E9CF82E136
:103FB00090E020E339E0E4CF8BE590E025ED38E0B8
:103FC000DFCF0895CF93C82F0E94E11FC093D00187
:103FD000CF9108958091DB01843011F482E008953F
:103FE00081E008958091D001811102C00C94EA1FF4
:103FF000089580E189BD82E189BD09B400FEFDCF4D
:104000008091D8008F7D8093D8008091E0008260FD
:104010008093E0008091E00081FDFCCF0895AF9295
:10402000BF92CF92DF92FF920F931F93CF93DF93B4
:104030006C01EB018A010E946E21F82E811123C0D0
:104040000115110539F0F80180819181C81BD90B48
:10405000C80ED91EB12CA12C2097A9F08091E800A0
:1040600085FD22C08091E8008E778093E8000115DD
:104070001105A1F0F80180819181A80EB91EB182CD
:10408000A08285E0F82E8F2DDF91CF911F910F91A7
:10409000FF90DF90CF90BF90AF9008950E946E2167
:1040A0008823D1F2F82EEFCFF60181916F01809332
:1040B000F1002197FFEFAF1ABF0ACECFFC0180912C
:1040C000E2019091E30186179707A0F06115710551
:1040D00029F49091E8009E779093E80090E06115B4
:1040E000710551F4911108C08091E80082FF34C03D
:1040F00080E00895BC01F2CF8091DB018823C1F1FB
:104100008530C1F18091E80083FD30C08091E800E6
:1041100082FDEACF8091E80080FFE1CF8091F3003B
:104120002091F200382F6115710519F02830310502
:1041300058F091E02830310509F090E02091E80036
:104140002E772093E800CBCF81918093F1006150CE
:1041500071092F5F3F4FE7CF8091DB01882341F04A
:10416000853041F08091E80083FFBECF81E0089563
:1041700082E0089583E00895FC018091E20190912E
:10418000E30186179707A0F06115710529F4809166
:10419000E8008E778093E80090E06115710551F496
:1041A000911108C08091E80082FF35C080E0089539
:1041B000BC01F2CF8091DB018823C9F18530C9F1C0
:1041C0008091E80083FD31C08091E80082FDEACF54
:1041D0008091E80080FFE1CF8091F3002091F20010
:1041E000382F6115710519F02830310558F091E02C
:1041F0002830310509F090E08091E8008E778093B7
:10420000E800CBCF84918093F10031966150710921
:104210002F5F3F4FE6CF8091DB01882341F085304F
:1042200041F08091E80083FFBDCF81E0089582E0F6
:10423000089583E00895982F973028F08F70809329
:10424000E90081E008959093E900242F762F50E053
:10425000981731F07091EC002091ED005091F00032
:1042600021FD02C09F5FE8CF3091EB003E7F30938D
:10427000EB003091ED003D7F3093ED003091EB008D
:1042800031603093EB007093EC002093ED0050937D
:10429000F0002091EE0027FDE5CF80E008958091A9
:1042A000DC0187FF13C08091E80082FF06C0809187
:1042B000E8008B778093E80004C08091DB018111D6
:1042C000F2CF08958091DB018823D9F38091E80033
:1042D00080FFF8CF8091E8008E77ECCF2091E4004A
:1042E0003091E50095E6A9012091EC00822F8170C4
:1042F00020FF06C08091E80080FF06C080E008959E
:104300002091E80022FD1AC08091DB01882389F00A
:10431000853089F08091EB0085FD0FC02091E4008D
:104320003091E50042175307F9F29150E1F684E02D
:10433000089582E0089583E0089581E008950E9441
:104340000D220E941522E0EEF0E0808181608083E2
:10435000E8EDF0E080818F77808319BCA7EDB0E0B5
:104360008C918E7F8C9380818F7E80831092DA0176
:1043700008950F931F93CF93DF930E940D220E9405
:104380001522C8EDD0E088818F7788838881806886
:10439000888388818F7D888319BC1092DB011092FD
:1043A000D7011092D9011092D80100EE10E0F80167
:1043B00080818B7F808388818160888342E060E098
:1043C00080E00E941B21E1EEF0E080818E7F8083FF
:1043D000E2EEF0E08081816080838081886080836C
:1043E000F80180818E7F8083888180618883DF915E
:1043F000CF911F910F910895E8EDF0E080818F7EBD
:104400008083E7EDF0E080818160808384E082BF7B
:1044100081E08093DA010C94B921E8EDF0E080812D
:104420008E7F80831092E20008951092DA0010923D
:10443000E10008951F920F920FB60F9211242F934F
:104440003F934F935F936F937F938F939F93AF931C
:10445000BF93EF93FF938091E10082FF0BC08091A7
:10446000E20082FF07C08091E1008B7F8093E10032
:104470000E94341E8091DA0080FF19C08091D8001C
:1044800080FF15C08091DA008E7F8093DA008091E2
:10449000D90080FF96C080E189BD82E189BD09B461
:1044A00000FEFDCF81E08093DB010E940D1E809114
:1044B000E10080FF19C08091E20080FF15C080916B
:1044C000E2008E7F8093E2008091E2008061809321
:1044D000E2008091D80080628093D80019BC85E00A
:1044E0008093DB010E942A1E8091E10084FF2BC093
:1044F0008091E20084FF27C080E189BD82E189BD0F
:1045000089B5982F917080FFFBCF8091D8008F7D67
:104510008093D8008091E1008F7E8093E1008091AC
:10452000E2008F7E8093E2008091E20081608093C0
:10453000E2008091D701882309F449C084E0809388
:10454000DB010E942E1E8091E10083FF29C0809133
:10455000E20083FF25C08091E100877F8093E10026
:1045600082E08093DB011092D7018091E1008E7F81
:104570008093E1008091E2008E7F8093E200809141
:10458000E20080618093E20042E060E080E00E940F
:104590001B218091F00088608093F0000E94261E0D
:1045A000FF91EF91BF91AF919F918F917F916F910B
:1045B0005F914F913F912F910F900FBE0F901F90E1
:1045C000189519BC1092DB010E941F1E70CF8091BC
:1045D000E30087FD93E09093DB01B3CF1F920F922E
:1045E0000FB60F9211242F933F934F935F936F93C6
:1045F0007F938F939F93AF93BF93CF93DF93EF936B
:10460000FF93D091E900DF708091EC00C82FC1705A
:1046100080FDC0E81092E9008091F000877F8093D0
:10462000F00078940E9432231092E9008091F0000B
:1046300088608093F000CD2BCF70C093E900FF918C
:10464000EF91DF91CF91BF91AF919F918F917F912A
:104650006F915F914F913F912F910F900FBE0F90EF
:104660001F9018951F93CF93DF93CDB7DEB7AA970E
:104670000FB6F894DEBF0FBECDBF8CED91E0209158
:10468000F100FC012193CF01F1E0843E9F07B9F7CF
:104690000E94841E8091E80083FF1EC18091DC018E
:1046A0009091DD019A3008F017C1E92FF0E0E65C47
:1046B000FA4D0C94AB24803899F0823809F00CC183
:1046C0008091E0018F70873008F006C18093E90087
:1046D0008091EB0085FB882780F91092E90006C0E5
:1046E0008091D8019091D901911182609091E80058
:1046F000977F9093E8008093F1001092F1008091F1
:10470000E8008E77E5C0882309F4D3C0823009F031
:10471000E3C08091DE018111D6C08091E0018F70ED
:104720002FEF280F263008F0D7C08093E9002091A2
:10473000EB0020FFC8C0933031F48091EB00806221
:104740008093EB00C0C09091EB0090619093EB00E0
:1047500021E030E001C0220F8A95EAF72093EA00B9
:104760001092EA008091EB008860EACF8111B4C01A
:104770001091DE011F778091E3008078812B809378
:10478000E3008091E800877F8093E8000E944F213A
:104790008091E80080FFFCCF8091E30080688093E7
:1047A000E30082E0111183E08093DB0195C0805823
:1047B000823008F091C08091DE019091DF018C3D44
:1047C00023E09207A1F583E08A838AE289834FB7C9
:1047D000F894DE01139620E03EE051E2E32FF0E092
:1047E00050935700E49120FF03C0E295EF703F5FC4
:1047F000EF708E2F90E0EA30C0F0C7968D939D93B6
:104800002F5F243159F74FBF8091E800877F809355
:10481000E8006AE270E0CE0101960E945E2080917D
:10482000E8008B778093E80057C0C096E7CF60918F
:10483000E0017091E101AE014F5F5F4F0E94821F66
:10484000BC01892B09F448C09091E800977F9093B0
:10485000E80089819A810E94BC20E1CF8038E1F58F
:104860008091E800877F8093E8008091D701809352
:10487000F10045CF811130C09091DE01923060F59A
:104880008091E800877F8093E8009093D7010E9491
:104890004F218091D701882311F084E005C08091D9
:1048A000E30087FDFACF81E08093DB010E94751E53
:1048B00013C08091DE01813079F481E0933009F0FA
:1048C00080E08093D9011092E9008091E800877F11
:1048D0008093E8000E944F218091E80083FF0AC086
:1048E0008091E800877F8093E8008091EB008062F0
:1048F0008093EB00AA960FB6F894DEBF0FBECDBF33
:10490000DF91CF911F910895CF938091DB01882390
:10491000A1F0C091E900CF709091EC00892F8170D7
:1049200090FD80E8C82B1092E9008091E80083FD9B
:104930000E943223CF70C093E900CF910895991B54
:1049400079E004C0991F961708F0961B881F7A9586
:10495000C9F780950895EE0FFF1F0590F491E02DA3
:104960000994F999FECF92BD81BDF89A992780B537
:104970000895A8E1B0E042E050E00C94E524262F31
:10498000F999FECF92BD81BDF89A019700B4021645
:1049900039F01FBA20BD0FB6F894FA9AF99A0FBEF3
:1049A00008950396272F0E94C0240E94BF24252F1C
:1049B0000E94C024242F0C94C0240196272F0E940B
:1049C000C0240C94BF24DC01CB01FC01F999FECF7B
:1049D00006C0F2BDE1BDF89A319600B40D92415087
:1049E0005040B8F70895F894FFCFFF060B070F0764
:1049F000130717071B071F07230727072B072F0777
:104A0000330737073B073F07430747074B07420F6B
:104A1000420F9E0F9E0FDF0F6F0F6F0F6F0FFB0F79
:104A20006F0F87108710F2106F0F6F0FFB10911030
:104A3000911091109110911091109110911091106E
:104A400091109110911091109110911091109E1051
:104A5000AC10B310BA10C410571157116011601187
:104A600062116011601160115711571167116011C7
:104A7000601167115B2383236C2483236C24B6238A
:084A8000D7236C242E243A24F4
:104A8800B501031DDA1D061DA41D691D0197953783
:104A980033323130C6F0F1F4F5F7F6949640362209
:0C4AA8009A0964094209E708000919098D
:00000001FF
